{
  "address": "0xb7875Cde5e1e63c299689fB491116a6a03fA62cB",
  "abi": [
    {
      "inputs": [
        {
          "internalType": "contract ISafe",
          "name": "safe",
          "type": "address"
        },
        {
          "internalType": "bytes",
          "name": "message",
          "type": "bytes"
        }
      ],
      "name": "encodeMessageDataForSafe",
      "outputs": [
        {
          "internalType": "bytes",
          "name": "",
          "type": "bytes"
        }
      ],
      "stateMutability": "view",
      "type": "function"
    },
    {
      "inputs": [
        {
          "internalType": "bytes",
          "name": "message",
          "type": "bytes"
        }
      ],
      "name": "getMessageHash",
      "outputs": [
        {
          "internalType": "bytes32",
          "name": "",
          "type": "bytes32"
        }
      ],
      "stateMutability": "view",
      "type": "function"
    },
    {
      "inputs": [
        {
          "internalType": "contract ISafe",
          "name": "safe",
          "type": "address"
        },
        {
          "internalType": "bytes",
          "name": "message",
          "type": "bytes"
        }
      ],
      "name": "getMessageHashForSafe",
      "outputs": [
        {
          "internalType": "bytes32",
          "name": "",
          "type": "bytes32"
        }
      ],
      "stateMutability": "view",
      "type": "function"
    },
    {
      "inputs": [],
      "name": "getModules",
      "outputs": [
        {
          "internalType": "address[]",
          "name": "",
          "type": "address[]"
        }
      ],
      "stateMutability": "view",
      "type": "function"
    },
    {
      "inputs": [
        {
          "internalType": "bytes32",
          "name": "_dataHash",
          "type": "bytes32"
        },
        {
          "internalType": "bytes",
          "name": "_signature",
          "type": "bytes"
        }
      ],
      "name": "isValidSignature",
      "outputs": [
        {
          "internalType": "bytes4",
          "name": "",
          "type": "bytes4"
        }
      ],
      "stateMutability": "view",
      "type": "function"
    },
    {
      "inputs": [
        {
          "internalType": "address",
          "name": "",
          "type": "address"
        },
        {
          "internalType": "address",
          "name": "",
          "type": "address"
        },
        {
          "internalType": "uint256[]",
          "name": "",
          "type": "uint256[]"
        },
        {
          "internalType": "uint256[]",
          "name": "",
          "type": "uint256[]"
        },
        {
          "internalType": "bytes",
          "name": "",
          "type": "bytes"
        }
      ],
      "name": "onERC1155BatchReceived",
      "outputs": [
        {
          "internalType": "bytes4",
          "name": "",
          "type": "bytes4"
        }
      ],
      "stateMutability": "pure",
      "type": "function"
    },
    {
      "inputs": [
        {
          "internalType": "address",
          "name": "",
          "type": "address"
        },
        {
          "internalType": "address",
          "name": "",
          "type": "address"
        },
        {
          "internalType": "uint256",
          "name": "",
          "type": "uint256"
        },
        {
          "internalType": "uint256",
          "name": "",
          "type": "uint256"
        },
        {
          "internalType": "bytes",
          "name": "",
          "type": "bytes"
        }
      ],
      "name": "onERC1155Received",
      "outputs": [
        {
          "internalType": "bytes4",
          "name": "",
          "type": "bytes4"
        }
      ],
      "stateMutability": "pure",
      "type": "function"
    },
    {
      "inputs": [
        {
          "internalType": "address",
          "name": "",
          "type": "address"
        },
        {
          "internalType": "address",
          "name": "",
          "type": "address"
        },
        {
          "internalType": "uint256",
          "name": "",
          "type": "uint256"
        },
        {
          "internalType": "bytes",
          "name": "",
          "type": "bytes"
        }
      ],
      "name": "onERC721Received",
      "outputs": [
        {
          "internalType": "bytes4",
          "name": "",
          "type": "bytes4"
        }
      ],
      "stateMutability": "pure",
      "type": "function"
    },
    {
      "inputs": [
        {
          "internalType": "address",
          "name": "targetContract",
          "type": "address"
        },
        {
          "internalType": "bytes",
          "name": "calldataPayload",
          "type": "bytes"
        }
      ],
      "name": "simulate",
      "outputs": [
        {
          "internalType": "bytes",
          "name": "response",
          "type": "bytes"
        }
      ],
      "stateMutability": "nonpayable",
      "type": "function"
    },
    {
      "inputs": [
        {
          "internalType": "bytes4",
          "name": "interfaceId",
          "type": "bytes4"
        }
      ],
      "name": "supportsInterface",
      "outputs": [
        {
          "internalType": "bool",
          "name": "",
          "type": "bool"
        }
      ],
      "stateMutability": "view",
      "type": "function"
    },
    {
      "inputs": [
        {
          "internalType": "address",
          "name": "",
          "type": "address"
        },
        {
          "internalType": "address",
          "name": "",
          "type": "address"
        },
        {
          "internalType": "address",
          "name": "",
          "type": "address"
        },
        {
          "internalType": "uint256",
          "name": "",
          "type": "uint256"
        },
        {
          "internalType": "bytes",
          "name": "",
          "type": "bytes"
        },
        {
          "internalType": "bytes",
          "name": "",
          "type": "bytes"
        }
      ],
      "name": "tokensReceived",
      "outputs": [],
      "stateMutability": "pure",
      "type": "function"
    }
  ],
  "transactionHash": "0x3ab3285b56d5426be81ad4bfe3c24876f3362db5595fab3dc269673b130c389c",
  "args": [],
  "numDeployments": 1,
  "solcInputHash": "d6372cac540e87137b93d1ade6e31ca3",
  "bytecode": "0x608060405234601957604051610e5261001f8239610e5290f35b600080fdfe6080604052600436101561001257600080fd5b60003560e01c806223de29146100c157806301ffc9a7146100bc5780630a1028c4146100b7578063150b7a02146100b25780631626ba7e146100ad57806323031640146100a85780636ac24784146100a3578063b2494df31461009e578063bc197c8114610099578063bd61951d146100945763f23a6e61036100e757610743565b6106c8565b61068c565b6105b1565b61051a565b6104f2565b61041d565b6103ae565b610334565b61021c565b6101bf565b6001600160a01b031690565b90565b6001600160a01b0381165b036100e757565b600080fd5b905035906100f9826100d5565b565b806100e0565b905035906100f9826100fb565b909182601f830112156100e7578135916001600160401b0383116100e75760200192600183028401116100e757565b60c0818303126100e75761015182826100ec565b9261015f83602084016100ec565b9261016d81604085016100ec565b9261017b8260608301610101565b9260808201356001600160401b0381116100e7578361019b91840161010e565b92909360a08201356001600160401b0381116100e7576101bb920161010e565b9091565b346100e7576101cf36600461013d565b50505050505050506101e060405190565b80805b0390f35b6001600160e01b031981166100e0565b905035906100f9826101e7565b906020828203126100e7576100d2916101f7565b9052565b346100e7576101e3610237610232366004610204565b610765565b60405191829182901515815260200190565b634e487b7160e01b600052604160045260246000fd5b90601f01601f191681019081106001600160401b0382111761028057604052565b610249565b906100f961029260405190565b928361025f565b6001600160401b03811161028057602090601f01601f19160190565b0190565b90826000939282370152565b909291926102da6102d582610299565b610285565b93818552818301116100e7576100f99160208501906102b9565b9080601f830112156100e7578160206100d2933591016102c5565b906020828203126100e75781356001600160401b0381116100e7576100d292016102f4565b346100e7576101e361034f61034a36600461030f565b6107e4565b6040519182918290815260200190565b906080828203126100e75761037481836100ec565b9261038282602085016100ec565b926103908360408301610101565b9260608201356001600160401b0381116100e7576101bb920161010e565b346100e7576101e36103cd6103c436600461035f565b9392909261081e565b604051918291826001600160e01b0319909116815260200190565b9190916040818403126100e7576103ff8382610101565b9260208201356001600160401b0381116100e7576101bb920161010e565b346100e7576101e36103cd6104333660046103e8565b916108f6565b6001600160a01b0381166100e0565b905035906100f982610439565b9190916040818403126100e75761046c8382610448565b9260208201356001600160401b0381116100e7576100d292016102f4565b60005b83811061049d5750506000910152565b818101518382015260200161048d565b6104ce6104d76020936102b5936104c2815190565b80835293849260200190565b9586910161048a565b601f01601f191690565b60208082526100d2929101906104ad565b346100e7576101e361050e610508366004610455565b90610af7565b604051918291826104e1565b346100e7576101e361034f610530366004610455565b90610bf7565b60009103126100e757565b9061056161055a610550845190565b8084529260200190565b9260200190565b9060005b8181106105725750505090565b90919261059861059160019286516001600160a01b0316815260200190565b9460200190565b929101610565565b60208082526100d292910190610541565b346100e7576105c1366004610536565b6101e36105cc610d19565b604051918291826105a0565b909182601f830112156100e7578135916001600160401b0383116100e75760200192602083028401116100e757565b9160a0838303126100e75761061c82846100ec565b9261062a83602083016100ec565b9260408201356001600160401b0381116100e7578161064a9184016105d8565b92909360608201356001600160401b0381116100e7578361066c9184016105d8565b92909360808201356001600160401b0381116100e7576101bb920161010e565b346100e7576101e36103cd6106a2366004610607565b96959095949194939293610d8e565b9190916040818403126100e7576103ff83826100ec565b346100e7576101e361050e6106de3660046106b1565b91610dac565b91909160a0818403126100e7576106fb83826100ec565b9261070981602084016100ec565b926107178260408501610101565b926107258360608301610101565b9260808201356001600160401b0381116100e7576101bb920161010e565b346100e7576101e36103cd6107593660046106e4565b94939093929192610e00565b630271189760e51b6001600160e01b03198216149081156107a3575b811561078b575090565b6301ffc9a760e01b91506001600160e01b0319161490565b6001600160e01b03198116630a85bd0160e11b149150610781565b6100d2906100c6906001600160a01b031682565b6100d2906107be565b6100d2906107d2565b6100d2906107f96107f4336107db565b6107db565b610bf7565b61081161080b6100d29290565b60e01b90565b6001600160e01b03191690565b505050505061082b600090565b506100d263150b7a026107fe565b6100d26100d26100d29290565b91906104d78161085d816102b59560209181520190565b80956102b9565b9081526040602082018190526100d293910191610846565b6040513d6000823e3d90fd5b905051906100f9826100fb565b906020828203126100e7576100d291610888565b156108b057565b60405162461bcd60e51b815260206004820152601160248201527012185cda081b9bdd08185c1c1c9bdd9959607a1b6044820152606490fd5b6100d2631626ba7e6107fe565b91906109356109076107f4336107db565b9361092f61091460405190565b60208101928352918290604082015b9081038252038261025f565b84610af7565b610947610940825190565b9160200190565b20908260009361095d61095986610839565b9190565b03610a05575050602090610973610994946107db565b60405194859283918291635ae6bd3760e01b83526004830190815260200190565b03915afa908115610a00576109bf926000926109c7575b506109596109b891610839565b14156108a9565b6100d26108e9565b6109b89192506109f16109599160203d6020116109f9575b6109e9818361025f565b810190610895565b9291506109ab565b503d6109df565b61087c565b909293610a11906107db565b803b156100e757610a41938593610a2760405190565b9586948593849363ed516d5160e01b855260048501610864565b03915afa8015610a0057610a57575b50506109bf565b81610a7692903d10610a7d575b610a6e818361025f565b810190610536565b3880610a50565b503d610a64565b6100d27f60b3cbf8b4a223d68d641b3b6ddf9a298e7f33710cf3d3a9d1146b5a6150fbca610839565b9081526040810192916100f99160200152565b610ad3610acd6100d29290565b60f81b90565b6001600160f81b03191690565b0180926001600160f81b0319169052565b01918252565b90610b3561092391610b07606090565b50610b10610a84565b90610b1c610940825190565b2090610b2760405190565b938492602084019283610aad565b610b40610940825190565b2090610b4c6019610ac0565b90610b60610b5a6001610ac0565b916107db565b916020610b6c60405190565b63f698da2560e01b815293849060049082905afa928315610a0057600093610bd0575b506109236100d29394610ba160405190565b95869460208601948592610af160016102b594610af18288610ae060209b9a8c996001600160f81b0319169052565b6100d29350610bf06109239160203d6020116109f9576109e9818361025f565b9350610b8f565b610c019190610af7565b610c0c610940825190565b2090565b6100c66100d26100d29290565b6100d290610c10565b6100d26001610c1d565b6001600160401b0381116102805760208091020190565b905051906100f9826100d5565b90929192610c646102d582610c30565b93818552602080860192028301928184116100e757915b838310610c885750505050565b60208091610c968486610c47565b815201920191610c7b565b9080601f830112156100e75781516100d292602001610c54565b91906040838203126100e7578251906001600160401b0382116100e7576020610ce9826100d2948701610ca1565b9401610c47565b61021890610839565b6001600160a01b0390911681526040810192916100f99160200190610cf0565b610d596000600a610d2f6107f46107f4336107db565b610d37610c26565b604051809581948293610d4e63cc2f845260e01b90565b845260048401610cf9565b03915afa908115610a0057600091610d6f575090565b610d8a913d8091833e610d82818361025f565b810190610cbb565b5090565b5050505050505050610d9e600090565b506100d263bc197c816107fe565b505050610db7606090565b506020600060405163b4faba0960e01b815260043603600480830137369082335af15060203d0390604051918083016040526020833e60005115610df757565b50602081519101fd5b505050505050610e0e600090565b506100d263f23a6e616107fe56fea264697066735822122054745734ca3c8e93c9fbce52893817a33fe45ed860cc8f45d9b9b26d39d3a0ec64736f6c634300081b0033",
  "devdoc": {
    "author": "Richard Meissner - @rmeissner",
    "kind": "dev",
    "methods": {
      "encodeMessageDataForSafe(address,bytes)": {
        "details": "Returns the pre-image of the message hash (see getMessageHashForSafe).",
        "params": {
          "message": "Message that should be encoded.",
          "safe": "Safe to which the message is targeted."
        },
        "returns": {
          "_0": "Encoded message."
        }
      },
      "getMessageHash(bytes)": {
        "details": "Returns the hash of a message to be signed by owners.",
        "params": {
          "message": "Raw message bytes."
        },
        "returns": {
          "_0": "Message hash."
        }
      },
      "getMessageHashForSafe(address,bytes)": {
        "details": "Returns hash of a message that can be signed by owners.",
        "params": {
          "message": "Message that should be hashed.",
          "safe": "Safe to which the message is targeted."
        },
        "returns": {
          "_0": "Message hash."
        }
      },
      "getModules()": {
        "details": "Returns array of first 10 modules.",
        "returns": {
          "_0": "Array of modules."
        }
      },
      "isValidSignature(bytes32,bytes)": {
        "params": {
          "_dataHash": "Hash of the data signed on the behalf of address(msg.sender)",
          "_signature": "Signature byte array associated with _dataHash"
        },
        "returns": {
          "_0": "Updated EIP1271 magic value if signature is valid, otherwise 0x0"
        }
      },
      "simulate(address,bytes)": {
        "details": "Performs a delegatecall on a targetContract in the context of self. Internally reverts execution to avoid side effects (making it static). Catches revert and returns encoded result as bytes.Inspired by https://github.com/gnosis/util-contracts/blob/bb5fe5fb5df6d8400998094fb1b32a178a47c3a1/contracts/StorageAccessible.sol",
        "params": {
          "calldataPayload": "Calldata that should be sent to the target contract (encoded method name and arguments).",
          "targetContract": "Address of the contract containing the code to execute."
        }
      },
      "supportsInterface(bytes4)": {
        "params": {
          "interfaceId": "Id of the interface."
        },
        "returns": {
          "_0": "if the interface is supported."
        }
      }
    },
    "title": "Compatibility Fallback Handler - Provides compatibility between pre 1.3.0 and 1.3.0+ Safe Smart Account contracts.",
    "version": 1
  },
  "userdoc": {
    "kind": "user",
    "methods": {
      "isValidSignature(bytes32,bytes)": {
        "notice": "Implementation of updated EIP-1271 signature validation method."
      },
      "onERC1155BatchReceived(address,address,uint256[],uint256[],bytes)": {
        "notice": "Handles ERC1155 Token batch callback. return Standardized onERC1155BatchReceived return value."
      },
      "onERC1155Received(address,address,uint256,uint256,bytes)": {
        "notice": "Handles ERC1155 Token callback. return Standardized onERC1155Received return value."
      },
      "onERC721Received(address,address,uint256,bytes)": {
        "notice": "Handles ERC721 Token callback.  return Standardized onERC721Received return value."
      },
      "supportsInterface(bytes4)": {
        "notice": "Implements ERC165 interface support for ERC1155TokenReceiver, ERC721TokenReceiver and IERC165."
      },
      "tokensReceived(address,address,address,uint256,bytes,bytes)": {
        "notice": "Handles ERC777 Token callback. return nothing (not standardized)"
      }
    },
    "version": 1
  },
  "storageLayout": {
    "storage": [],
    "types": null
  }
}