{
  "address": "0xbe9B86f0B5fCfcffa7643D21067Fb47cdE71FdA1",
  "abi": [
    {
      "inputs": [
        {
          "internalType": "bytes",
          "name": "transactions",
          "type": "bytes"
        }
      ],
      "name": "multiSend",
      "outputs": [],
      "stateMutability": "payable",
      "type": "function"
    }
  ],
  "transactionHash": "0xc2b222f0438feef34aff566e2749b9ba62c45c878d7681443835bb8b0ddd8f2f",
  "args": [],
  "numDeployments": 1,
  "solcInputHash": "d6372cac540e87137b93d1ade6e31ca3",
  "bytecode": "0x6080604052346019576040516101e761001f82396101e790f35b600080fdfe6080604052600436101561001257600080fd5b60003560e01c638d80ff0a036100d25761011b565b634e487b7160e01b600052604160045260246000fd5b90601f01601f1916810190811067ffffffffffffffff82111761005f57604052565b610027565b9061007861007160405190565b928361003d565b565b67ffffffffffffffff811161005f57602090601f01601f19160190565b90826000939282370152565b909291926100b86100b38261007a565b610064565b93818552818301116100d257610078916020850190610097565b600080fd5b9080601f830112156100d2578160206100f2933591016100a3565b90565b906020828203126100d257813567ffffffffffffffff81116100d2576100f292016100d7565b61012e6101293660046100f5565b610133565b604051005b80519060205b82811061014557505050565b818101805160018201516015830151603590930151929160009160f89190911c90849060601c8015300217821561019b5750509091506001146100d2575b156101915760550101610139565b3d6000803e3d6000fd5b839250600094605588018901915af1905061018356fea26469706673582212200b1af73a6259bba5ee29f24d8c89889bbc53db047b9a669f7afb5f70a428062d64736f6c634300081b0033",
  "devdoc": {
    "author": "Stefan George - @Georgi87Richard Meissner - @rmeissner",
    "kind": "dev",
    "methods": {
      "multiSend(bytes)": {
        "details": "Sends multiple transactions and reverts all if one fails.",
        "params": {
          "transactions": "Encoded transactions. Each transaction is encoded as a packed bytes of                     operation has to be uint8(0) in this version (=> 1 byte),                     to as a address (=> 20 bytes),                     value as a uint256 (=> 32 bytes),                     data length as a uint256 (=> 32 bytes),                     data as bytes.                     see abi.encodePacked for more information on packed encoding"
        }
      }
    },
    "title": "Multi Send Call Only - Allows to batch multiple transactions into one, but only calls",
    "version": 1
  },
  "userdoc": {
    "kind": "user",
    "methods": {
      "multiSend(bytes)": {
        "notice": "The code is for most part the same as the normal MultiSend (to keep compatibility),         but reverts if a transaction tries to use a delegatecall.This method is payable as delegatecalls keep the msg.value from the previous call         If the calling method (e.g. execTransaction) received ETH this would revert otherwise"
      }
    },
    "notice": "The guard logic is not required here as this contract doesn't support nested delegate calls",
    "version": 1
  },
  "storageLayout": {
    "storage": [],
    "types": null
  }
}