{
  "address": "0x9eC646270bDD535ff77962c60696255115f60c54",
  "abi": [
    {
      "inputs": [],
      "stateMutability": "nonpayable",
      "type": "constructor"
    },
    {
      "inputs": [
        {
          "internalType": "bytes",
          "name": "transactions",
          "type": "bytes"
        }
      ],
      "name": "multiSend",
      "outputs": [],
      "stateMutability": "payable",
      "type": "function"
    }
  ],
  "transactionHash": "0x0c91d2104e20564e76e7a49fb93aa5a57e4fd2f0e85bfa21db610effec982f52",
  "args": [],
  "numDeployments": 1,
  "solcInputHash": "d6372cac540e87137b93d1ade6e31ca3",
  "bytecode": "0x60a060405234602857600e605c565b6040516102de6100698239608051816101ed01526102de90f35b600080fd5b603f906042906001600160a01b031682565b90565b6001600160a01b031690565b603f90602d565b603f90604e565b6063306055565b60805256fe6080604052600436101561001257600080fd5b60003560e01c638d80ff0a036100d25761011b565b634e487b7160e01b600052604160045260246000fd5b90601f01601f1916810190811067ffffffffffffffff82111761005f57604052565b610027565b9061007861007160405190565b928361003d565b565b67ffffffffffffffff811161005f57602090601f01601f19160190565b90826000939282370152565b909291926100b86100b38261007a565b610064565b93818552818301116100d257610078916020850190610097565b600080fd5b9080601f830112156100d2578160206100f2933591016100a3565b90565b906020828203126100d257813567ffffffffffffffff81116100d2576100f292016100d7565b61012e6101293660046100f5565b6101d9565b604051005b6100f290610147906001600160a01b031682565b6001600160a01b031690565b6100f290610133565b6100f290610153565b60208082526030908201527f4d756c746953656e642073686f756c64206f6e6c792062652063616c6c65642060408201526f1d9a584819195b1959d85d1958d85b1b60821b606082015260800190565b156101bc57565b60405162461bcd60e51b8152806101d560048201610165565b0390fd5b61021e6101e53061015c565b6102176102117f0000000000000000000000000000000000000000000000000000000000000000610147565b91610147565b14156101b5565b80519060205b82811061023057505050565b81810180516001820151601583015160358401519360009360609390931c801530021792849286926055019160f81c90811561029a575060011461028b575b50509050146102815760550101610224565b3d6000803e3d6000fd5b84938493505af480833861026f565b905083945af180833861026f56fea2646970667358221220cd4427dafe6ee1f3790fc4bf27ac1751ebbac908bbb6ce1c911c30b040c980e664736f6c634300081b0033",
  "devdoc": {
    "author": "Nick Dodson - <nick.dodson@consensys.net>Gonçalo Sá - <goncalo.sa@consensys.net>Stefan George - @Georgi87Richard Meissner - @rmeissner",
    "kind": "dev",
    "methods": {
      "multiSend(bytes)": {
        "details": "Sends multiple transactions and reverts all if one fails.",
        "params": {
          "transactions": "Encoded transactions. Each transaction is encoded as a packed bytes of                     operation as a uint8 with 0 for a call or 1 for a delegatecall (=> 1 byte),                     to as a address (=> 20 bytes),                     value as a uint256 (=> 32 bytes),                     data length as a uint256 (=> 32 bytes),                     data as bytes.                     see abi.encodePacked for more information on packed encoding"
        }
      }
    },
    "title": "Multi Send - Allows to batch multiple transactions into one.",
    "version": 1
  },
  "userdoc": {
    "kind": "user",
    "methods": {
      "multiSend(bytes)": {
        "notice": "This method is payable as delegatecalls keep the msg.value from the previous call         If the calling method (e.g. execTransaction) received ETH this would revert otherwise"
      }
    },
    "version": 1
  },
  "storageLayout": {
    "storage": [],
    "types": null
  }
}