{
  "address": "0x3913aC926c0E3BADA76FA976663d25238836954c",
  "abi": [
    {
      "inputs": [],
      "stateMutability": "nonpayable",
      "type": "constructor"
    },
    {
      "anonymous": false,
      "inputs": [
        {
          "indexed": true,
          "internalType": "address",
          "name": "owner",
          "type": "address"
        }
      ],
      "name": "AddedOwner",
      "type": "event"
    },
    {
      "anonymous": false,
      "inputs": [
        {
          "indexed": true,
          "internalType": "bytes32",
          "name": "approvedHash",
          "type": "bytes32"
        },
        {
          "indexed": true,
          "internalType": "address",
          "name": "owner",
          "type": "address"
        }
      ],
      "name": "ApproveHash",
      "type": "event"
    },
    {
      "anonymous": false,
      "inputs": [
        {
          "indexed": true,
          "internalType": "address",
          "name": "handler",
          "type": "address"
        }
      ],
      "name": "ChangedFallbackHandler",
      "type": "event"
    },
    {
      "anonymous": false,
      "inputs": [
        {
          "indexed": true,
          "internalType": "address",
          "name": "guard",
          "type": "address"
        }
      ],
      "name": "ChangedGuard",
      "type": "event"
    },
    {
      "anonymous": false,
      "inputs": [
        {
          "indexed": true,
          "internalType": "address",
          "name": "moduleGuard",
          "type": "address"
        }
      ],
      "name": "ChangedModuleGuard",
      "type": "event"
    },
    {
      "anonymous": false,
      "inputs": [
        {
          "indexed": false,
          "internalType": "uint256",
          "name": "threshold",
          "type": "uint256"
        }
      ],
      "name": "ChangedThreshold",
      "type": "event"
    },
    {
      "anonymous": false,
      "inputs": [
        {
          "indexed": true,
          "internalType": "address",
          "name": "module",
          "type": "address"
        }
      ],
      "name": "DisabledModule",
      "type": "event"
    },
    {
      "anonymous": false,
      "inputs": [
        {
          "indexed": true,
          "internalType": "address",
          "name": "module",
          "type": "address"
        }
      ],
      "name": "EnabledModule",
      "type": "event"
    },
    {
      "anonymous": false,
      "inputs": [
        {
          "indexed": true,
          "internalType": "bytes32",
          "name": "txHash",
          "type": "bytes32"
        },
        {
          "indexed": false,
          "internalType": "uint256",
          "name": "payment",
          "type": "uint256"
        }
      ],
      "name": "ExecutionFailure",
      "type": "event"
    },
    {
      "anonymous": false,
      "inputs": [
        {
          "indexed": true,
          "internalType": "address",
          "name": "module",
          "type": "address"
        }
      ],
      "name": "ExecutionFromModuleFailure",
      "type": "event"
    },
    {
      "anonymous": false,
      "inputs": [
        {
          "indexed": true,
          "internalType": "address",
          "name": "module",
          "type": "address"
        }
      ],
      "name": "ExecutionFromModuleSuccess",
      "type": "event"
    },
    {
      "anonymous": false,
      "inputs": [
        {
          "indexed": true,
          "internalType": "bytes32",
          "name": "txHash",
          "type": "bytes32"
        },
        {
          "indexed": false,
          "internalType": "uint256",
          "name": "payment",
          "type": "uint256"
        }
      ],
      "name": "ExecutionSuccess",
      "type": "event"
    },
    {
      "anonymous": false,
      "inputs": [
        {
          "indexed": true,
          "internalType": "address",
          "name": "owner",
          "type": "address"
        }
      ],
      "name": "RemovedOwner",
      "type": "event"
    },
    {
      "anonymous": false,
      "inputs": [
        {
          "indexed": true,
          "internalType": "address",
          "name": "sender",
          "type": "address"
        },
        {
          "indexed": false,
          "internalType": "uint256",
          "name": "value",
          "type": "uint256"
        }
      ],
      "name": "SafeReceived",
      "type": "event"
    },
    {
      "anonymous": false,
      "inputs": [
        {
          "indexed": true,
          "internalType": "address",
          "name": "initiator",
          "type": "address"
        },
        {
          "indexed": false,
          "internalType": "address[]",
          "name": "owners",
          "type": "address[]"
        },
        {
          "indexed": false,
          "internalType": "uint256",
          "name": "threshold",
          "type": "uint256"
        },
        {
          "indexed": false,
          "internalType": "address",
          "name": "initializer",
          "type": "address"
        },
        {
          "indexed": false,
          "internalType": "address",
          "name": "fallbackHandler",
          "type": "address"
        }
      ],
      "name": "SafeSetup",
      "type": "event"
    },
    {
      "anonymous": false,
      "inputs": [
        {
          "indexed": true,
          "internalType": "bytes32",
          "name": "msgHash",
          "type": "bytes32"
        }
      ],
      "name": "SignMsg",
      "type": "event"
    },
    {
      "stateMutability": "nonpayable",
      "type": "fallback"
    },
    {
      "inputs": [],
      "name": "VERSION",
      "outputs": [
        {
          "internalType": "string",
          "name": "",
          "type": "string"
        }
      ],
      "stateMutability": "view",
      "type": "function"
    },
    {
      "inputs": [
        {
          "internalType": "address",
          "name": "owner",
          "type": "address"
        },
        {
          "internalType": "uint256",
          "name": "_threshold",
          "type": "uint256"
        }
      ],
      "name": "addOwnerWithThreshold",
      "outputs": [],
      "stateMutability": "nonpayable",
      "type": "function"
    },
    {
      "inputs": [
        {
          "internalType": "bytes32",
          "name": "hashToApprove",
          "type": "bytes32"
        }
      ],
      "name": "approveHash",
      "outputs": [],
      "stateMutability": "nonpayable",
      "type": "function"
    },
    {
      "inputs": [
        {
          "internalType": "address",
          "name": "",
          "type": "address"
        },
        {
          "internalType": "bytes32",
          "name": "",
          "type": "bytes32"
        }
      ],
      "name": "approvedHashes",
      "outputs": [
        {
          "internalType": "uint256",
          "name": "",
          "type": "uint256"
        }
      ],
      "stateMutability": "view",
      "type": "function"
    },
    {
      "inputs": [
        {
          "internalType": "uint256",
          "name": "_threshold",
          "type": "uint256"
        }
      ],
      "name": "changeThreshold",
      "outputs": [],
      "stateMutability": "nonpayable",
      "type": "function"
    },
    {
      "inputs": [
        {
          "internalType": "bytes32",
          "name": "dataHash",
          "type": "bytes32"
        },
        {
          "internalType": "bytes",
          "name": "data",
          "type": "bytes"
        },
        {
          "internalType": "bytes",
          "name": "signatures",
          "type": "bytes"
        },
        {
          "internalType": "uint256",
          "name": "requiredSignatures",
          "type": "uint256"
        }
      ],
      "name": "checkNSignatures",
      "outputs": [],
      "stateMutability": "view",
      "type": "function"
    },
    {
      "inputs": [
        {
          "internalType": "address",
          "name": "executor",
          "type": "address"
        },
        {
          "internalType": "bytes32",
          "name": "dataHash",
          "type": "bytes32"
        },
        {
          "internalType": "bytes",
          "name": "signatures",
          "type": "bytes"
        },
        {
          "internalType": "uint256",
          "name": "requiredSignatures",
          "type": "uint256"
        }
      ],
      "name": "checkNSignatures",
      "outputs": [],
      "stateMutability": "view",
      "type": "function"
    },
    {
      "inputs": [
        {
          "internalType": "bytes32",
          "name": "dataHash",
          "type": "bytes32"
        },
        {
          "internalType": "bytes",
          "name": "data",
          "type": "bytes"
        },
        {
          "internalType": "bytes",
          "name": "signatures",
          "type": "bytes"
        }
      ],
      "name": "checkSignatures",
      "outputs": [],
      "stateMutability": "view",
      "type": "function"
    },
    {
      "inputs": [
        {
          "internalType": "bytes32",
          "name": "dataHash",
          "type": "bytes32"
        },
        {
          "internalType": "bytes",
          "name": "signatures",
          "type": "bytes"
        }
      ],
      "name": "checkSignatures",
      "outputs": [],
      "stateMutability": "view",
      "type": "function"
    },
    {
      "inputs": [
        {
          "internalType": "address",
          "name": "prevModule",
          "type": "address"
        },
        {
          "internalType": "address",
          "name": "module",
          "type": "address"
        }
      ],
      "name": "disableModule",
      "outputs": [],
      "stateMutability": "nonpayable",
      "type": "function"
    },
    {
      "inputs": [],
      "name": "domainSeparator",
      "outputs": [
        {
          "internalType": "bytes32",
          "name": "",
          "type": "bytes32"
        }
      ],
      "stateMutability": "view",
      "type": "function"
    },
    {
      "inputs": [
        {
          "internalType": "address",
          "name": "module",
          "type": "address"
        }
      ],
      "name": "enableModule",
      "outputs": [],
      "stateMutability": "nonpayable",
      "type": "function"
    },
    {
      "inputs": [
        {
          "internalType": "address",
          "name": "to",
          "type": "address"
        },
        {
          "internalType": "uint256",
          "name": "value",
          "type": "uint256"
        },
        {
          "internalType": "bytes",
          "name": "data",
          "type": "bytes"
        },
        {
          "internalType": "enum Enum.Operation",
          "name": "operation",
          "type": "uint8"
        },
        {
          "internalType": "uint256",
          "name": "safeTxGas",
          "type": "uint256"
        },
        {
          "internalType": "uint256",
          "name": "baseGas",
          "type": "uint256"
        },
        {
          "internalType": "uint256",
          "name": "gasPrice",
          "type": "uint256"
        },
        {
          "internalType": "address",
          "name": "gasToken",
          "type": "address"
        },
        {
          "internalType": "address payable",
          "name": "refundReceiver",
          "type": "address"
        },
        {
          "internalType": "bytes",
          "name": "signatures",
          "type": "bytes"
        }
      ],
      "name": "execTransaction",
      "outputs": [
        {
          "internalType": "bool",
          "name": "success",
          "type": "bool"
        }
      ],
      "stateMutability": "payable",
      "type": "function"
    },
    {
      "inputs": [
        {
          "internalType": "address",
          "name": "to",
          "type": "address"
        },
        {
          "internalType": "uint256",
          "name": "value",
          "type": "uint256"
        },
        {
          "internalType": "bytes",
          "name": "data",
          "type": "bytes"
        },
        {
          "internalType": "enum Enum.Operation",
          "name": "operation",
          "type": "uint8"
        }
      ],
      "name": "execTransactionFromModule",
      "outputs": [
        {
          "internalType": "bool",
          "name": "success",
          "type": "bool"
        }
      ],
      "stateMutability": "nonpayable",
      "type": "function"
    },
    {
      "inputs": [
        {
          "internalType": "address",
          "name": "to",
          "type": "address"
        },
        {
          "internalType": "uint256",
          "name": "value",
          "type": "uint256"
        },
        {
          "internalType": "bytes",
          "name": "data",
          "type": "bytes"
        },
        {
          "internalType": "enum Enum.Operation",
          "name": "operation",
          "type": "uint8"
        }
      ],
      "name": "execTransactionFromModuleReturnData",
      "outputs": [
        {
          "internalType": "bool",
          "name": "success",
          "type": "bool"
        },
        {
          "internalType": "bytes",
          "name": "returnData",
          "type": "bytes"
        }
      ],
      "stateMutability": "nonpayable",
      "type": "function"
    },
    {
      "inputs": [
        {
          "internalType": "address",
          "name": "start",
          "type": "address"
        },
        {
          "internalType": "uint256",
          "name": "pageSize",
          "type": "uint256"
        }
      ],
      "name": "getModulesPaginated",
      "outputs": [
        {
          "internalType": "address[]",
          "name": "array",
          "type": "address[]"
        },
        {
          "internalType": "address",
          "name": "next",
          "type": "address"
        }
      ],
      "stateMutability": "view",
      "type": "function"
    },
    {
      "inputs": [],
      "name": "getOwners",
      "outputs": [
        {
          "internalType": "address[]",
          "name": "",
          "type": "address[]"
        }
      ],
      "stateMutability": "view",
      "type": "function"
    },
    {
      "inputs": [
        {
          "internalType": "uint256",
          "name": "offset",
          "type": "uint256"
        },
        {
          "internalType": "uint256",
          "name": "length",
          "type": "uint256"
        }
      ],
      "name": "getStorageAt",
      "outputs": [
        {
          "internalType": "bytes",
          "name": "",
          "type": "bytes"
        }
      ],
      "stateMutability": "view",
      "type": "function"
    },
    {
      "inputs": [],
      "name": "getThreshold",
      "outputs": [
        {
          "internalType": "uint256",
          "name": "",
          "type": "uint256"
        }
      ],
      "stateMutability": "view",
      "type": "function"
    },
    {
      "inputs": [
        {
          "internalType": "address",
          "name": "to",
          "type": "address"
        },
        {
          "internalType": "uint256",
          "name": "value",
          "type": "uint256"
        },
        {
          "internalType": "bytes",
          "name": "data",
          "type": "bytes"
        },
        {
          "internalType": "enum Enum.Operation",
          "name": "operation",
          "type": "uint8"
        },
        {
          "internalType": "uint256",
          "name": "safeTxGas",
          "type": "uint256"
        },
        {
          "internalType": "uint256",
          "name": "baseGas",
          "type": "uint256"
        },
        {
          "internalType": "uint256",
          "name": "gasPrice",
          "type": "uint256"
        },
        {
          "internalType": "address",
          "name": "gasToken",
          "type": "address"
        },
        {
          "internalType": "address",
          "name": "refundReceiver",
          "type": "address"
        },
        {
          "internalType": "uint256",
          "name": "_nonce",
          "type": "uint256"
        }
      ],
      "name": "getTransactionHash",
      "outputs": [
        {
          "internalType": "bytes32",
          "name": "",
          "type": "bytes32"
        }
      ],
      "stateMutability": "view",
      "type": "function"
    },
    {
      "inputs": [
        {
          "internalType": "address",
          "name": "module",
          "type": "address"
        }
      ],
      "name": "isModuleEnabled",
      "outputs": [
        {
          "internalType": "bool",
          "name": "",
          "type": "bool"
        }
      ],
      "stateMutability": "view",
      "type": "function"
    },
    {
      "inputs": [
        {
          "internalType": "address",
          "name": "owner",
          "type": "address"
        }
      ],
      "name": "isOwner",
      "outputs": [
        {
          "internalType": "bool",
          "name": "",
          "type": "bool"
        }
      ],
      "stateMutability": "view",
      "type": "function"
    },
    {
      "inputs": [],
      "name": "nonce",
      "outputs": [
        {
          "internalType": "uint256",
          "name": "",
          "type": "uint256"
        }
      ],
      "stateMutability": "view",
      "type": "function"
    },
    {
      "inputs": [
        {
          "internalType": "address",
          "name": "prevOwner",
          "type": "address"
        },
        {
          "internalType": "address",
          "name": "owner",
          "type": "address"
        },
        {
          "internalType": "uint256",
          "name": "_threshold",
          "type": "uint256"
        }
      ],
      "name": "removeOwner",
      "outputs": [],
      "stateMutability": "nonpayable",
      "type": "function"
    },
    {
      "inputs": [
        {
          "internalType": "address",
          "name": "handler",
          "type": "address"
        }
      ],
      "name": "setFallbackHandler",
      "outputs": [],
      "stateMutability": "nonpayable",
      "type": "function"
    },
    {
      "inputs": [
        {
          "internalType": "address",
          "name": "guard",
          "type": "address"
        }
      ],
      "name": "setGuard",
      "outputs": [],
      "stateMutability": "nonpayable",
      "type": "function"
    },
    {
      "inputs": [
        {
          "internalType": "address",
          "name": "moduleGuard",
          "type": "address"
        }
      ],
      "name": "setModuleGuard",
      "outputs": [],
      "stateMutability": "nonpayable",
      "type": "function"
    },
    {
      "inputs": [
        {
          "internalType": "address[]",
          "name": "_owners",
          "type": "address[]"
        },
        {
          "internalType": "uint256",
          "name": "_threshold",
          "type": "uint256"
        },
        {
          "internalType": "address",
          "name": "to",
          "type": "address"
        },
        {
          "internalType": "bytes",
          "name": "data",
          "type": "bytes"
        },
        {
          "internalType": "address",
          "name": "fallbackHandler",
          "type": "address"
        },
        {
          "internalType": "address",
          "name": "paymentToken",
          "type": "address"
        },
        {
          "internalType": "uint256",
          "name": "payment",
          "type": "uint256"
        },
        {
          "internalType": "address payable",
          "name": "paymentReceiver",
          "type": "address"
        }
      ],
      "name": "setup",
      "outputs": [],
      "stateMutability": "nonpayable",
      "type": "function"
    },
    {
      "inputs": [
        {
          "internalType": "bytes32",
          "name": "",
          "type": "bytes32"
        }
      ],
      "name": "signedMessages",
      "outputs": [
        {
          "internalType": "uint256",
          "name": "",
          "type": "uint256"
        }
      ],
      "stateMutability": "view",
      "type": "function"
    },
    {
      "inputs": [
        {
          "internalType": "address",
          "name": "targetContract",
          "type": "address"
        },
        {
          "internalType": "bytes",
          "name": "calldataPayload",
          "type": "bytes"
        }
      ],
      "name": "simulateAndRevert",
      "outputs": [],
      "stateMutability": "nonpayable",
      "type": "function"
    },
    {
      "inputs": [
        {
          "internalType": "address",
          "name": "prevOwner",
          "type": "address"
        },
        {
          "internalType": "address",
          "name": "oldOwner",
          "type": "address"
        },
        {
          "internalType": "address",
          "name": "newOwner",
          "type": "address"
        }
      ],
      "name": "swapOwner",
      "outputs": [],
      "stateMutability": "nonpayable",
      "type": "function"
    },
    {
      "stateMutability": "payable",
      "type": "receive"
    }
  ],
  "transactionHash": "0x3782a5f9d6d499d9cbdf4fb4bdb29bbf0b3c8434b90016d7a4b7247b3e888da0",
  "args": [],
  "numDeployments": 1,
  "solcInputHash": "d6372cac540e87137b93d1ade6e31ca3",
  "bytecode": "0x608060405234601f57600e6041565b604051613314610054823961331490f35b600080fd5b602e602e602e9290565b90565b90602e602e603d926024565b9055565b6051604b60016024565b60046031565b56fe6080604052600436101561002a575b3615610020573415612753575b600080fd5b610028612713565b005b60003560e01c80630d582f131461021a57806312fb68e0146102155780631fcac7f3146102105780632d9ad53d1461020b5780632f54bf6e14610206578063468721a7146102015780635229073f146101fc5780635624b25b146101f75780635ae6bd37146101f2578063610b5925146101ed578063694e80c3146101e85780636a761202146101e35780637d832974146101de578063934f3a11146101d9578063a0e67e2b146101d4578063affed0e0146101cf578063b4faba09146101ca578063b63e800d146101c5578063cc2f8452146101c0578063d4d9bdcd146101bb578063d8d11f78146101b6578063e009cfde146101b1578063e068df37146101ac578063e19a9dd9146101a7578063e318b52b146101a2578063e75235b81461019d578063ed516d5114610198578063f08a032314610193578063f698da251461018e578063f8dc5dd9146101895763ffa1ad740361000e57610da9565b610d4b565b610d07565b610cef565b610cd6565b610ca4565b610c8b565b610c4a565b610c32565b610c19565b610bd5565b610b1a565b610aeb565b610a99565b6109b5565b610965565b610932565b61089b565b61082b565b6107bf565b6106ec565b6106d4565b6106a8565b610631565b6105d2565b610540565b6104bf565b610492565b61045e565b6103fa565b610285565b6001600160a01b031690565b90565b6001600160a01b0381165b0361001b57565b9050359061024d8261022e565b565b80610239565b9050359061024d8261024f565b919060408382031261001b5761022b90602061027e8286610240565b9401610255565b3461001b5761029e610298366004610262565b90611010565b60405180805b0390f35b909182601f8301121561001b578135916001600160401b03831161001b57602001926001830284011161001b57565b634e487b7160e01b600052604160045260246000fd5b90601f01601f191681019081106001600160401b0382111761030e57604052565b6102d7565b9061024d61032060405190565b92836102ed565b6001600160401b03811161030e57602090601f01601f19160190565b0190565b90826000939282370152565b9092919261036861036382610327565b610313565b938185528183011161001b5761024d916020850190610347565b9080601f8301121561001b5781602061022b93359101610353565b9160808383031261001b576103b28284610255565b9260208101356001600160401b03811161001b57836103d29183016102a8565b9290936040830135906001600160401b03821161001b57606061027e8261022b948701610382565b3461001b5761029e61040d36600461039d565b9392909261101a565b60808183031261001b5761042a8282610240565b926104388360208401610255565b926040830135906001600160401b03821161001b57606061027e8261022b948701610382565b3461001b5761029e610471366004610416565b929190916110de565b9060208282031261001b5761022b91610240565b9052565b3461001b576102a46104ad6104a836600461047a565b611394565b60405191829182901515815260200190565b3461001b576102a46104ad6104d536600461047a565b6113df565b6002111561001b57565b9050359061024d826104da565b60808183031261001b576105058282610240565b926105138360208401610255565b926040830135906001600160401b03821161001b5760606105398261022b948701610382565b94016104e4565b3461001b576102a46104ad6105563660046104f1565b92919091611416565b60005b8381106105725750506000910152565b8181015183820152602001610562565b6105a36105ac60209361034393610597815190565b80835293849260200190565b9586910161055f565b601f01601f191690565b901515815261022b9160408201915b6020818403910152610582565b3461001b576105ee6105e53660046104f1565b9291909161144a565b906102a46105fb60405190565b928392836105b6565b919060408382031261001b5761022b90602061027e8286610255565b602080825261022b92910190610582565b3461001b576102a461064d610647366004610604565b906114d1565b60405191829182610620565b9060208282031261001b5761022b91610255565b905b600052602052604060002090565b61022b916008021c81565b9061022b915461067d565b60006106a361022b92600761066d565b610688565b3461001b576102a46106c36106be366004610659565b610693565b6040515b9182918290815260200190565b3461001b5761029e6106e736600461047a565b6115ef565b3461001b5761029e6106ff366004610659565b611681565b91906101408382031261001b5761071b8184610240565b926107298260208301610255565b9260408201356001600160401b03811161001b57836107499184016102a8565b92909361075981606084016104e4565b926107678260808501610255565b926107758360a08301610255565b926107838160c08401610255565b926107918260e08501610240565b926107a0836101008301610240565b926101208201356001600160401b03811161001b5761022b9201610382565b6102a46104ad6107d0366004610704565b999890989791979692969593956117d2565b61022b9061021f906001600160a01b031682565b61022b906107e2565b61022b906107f6565b9061066f906107ff565b6106a361022b926108266000936008610808565b61066d565b3461001b576102a46106c3610841366004610262565b90610812565b60608183031261001b5761085b8282610255565b9260208201356001600160401b03811161001b578361087b9184016102a8565b92909360408201356001600160401b03811161001b5761022b9201610382565b3461001b5761029e6108ae366004610847565b92919091611ae5565b600091031261001b57565b906108e26108db6108d1845190565b8084529260200190565b9260200190565b9060005b8181106108f35750505090565b90919261091961091260019286516001600160a01b0316815260200190565b9460200190565b9291016108e6565b602080825261022b929101906108c2565b3461001b576109423660046108b7565b6102a461094d611b61565b60405191829182610921565b61022b60006005610688565b3461001b576109753660046108b7565b6102a46106c3610959565b91909160408184031261001b576109978382610240565b9260208201356001600160401b03811161001b5761022b9201610382565b3461001b576109c5366004610980565b90611bf0565b909182601f8301121561001b578135916001600160401b03831161001b57602001926020830284011161001b57565b91906101008382031261001b5782356001600160401b03811161001b5781610a239185016109cb565b929093610a338360208301610255565b92610a418160408401610240565b9260608301356001600160401b03811161001b5782610a619185016102a8565b929093610a718260808301610240565b9261022b610a828460a08501610240565b9360e0610a928260c08701610255565b9401610240565b3461001b5761029e610aac3660046109fa565b98979097969196959295949394611d23565b92916020610adb61024d93604087019087820360008901526108c2565b9401906001600160a01b03169052565b3461001b57610b04610afe366004610262565b90611df6565b906102a4610b1160405190565b92839283610abe565b3461001b5761029e610b2d366004610659565b611f69565b9190916101408184031261001b57610b4a8382610240565b92610b588160208401610255565b9260408301356001600160401b03811161001b5782610b789185016102a8565b929093610b8882606083016104e4565b92610b968360808401610255565b92610ba48160a08501610255565b92610bb28260c08301610255565b9261022b610bc38460e08501610240565b9361012061027e826101008701610240565b3461001b576102a46106c3610beb366004610b32565b99989098979197969296959395611ff9565b919060408382031261001b5761022b906020610a928286610240565b3461001b5761029e610c2c366004610bfd565b906120f5565b3461001b5761029e610c4536600461047a565b61224d565b3461001b5761029e610c5d36600461047a565b61233d565b909160608284031261001b5761022b610c7b8484610240565b936040610a928260208701610240565b3461001b5761029e610c9e366004610c62565b916124eb565b3461001b57610cb43660046108b7565b6102a46106c36124f6565b91909160408184031261001b576109978382610255565b3461001b5761029e610ce9366004610cbf565b90612500565b3461001b5761029e610d0236600461047a565b612577565b3461001b57610d173660046108b7565b6102a46106c36125d6565b909160608284031261001b5761022b610d3b8484610240565b93604061027e8260208701610240565b3461001b5761029e610d5e366004610d22565b91612708565b90610d7161036383610327565b918252565b610d806005610d64565b64312e342e3160d81b602082015290565b61022b610d76565b61022b610d91565b61022b610d99565b3461001b57610db93660046108b7565b6102a461064d610da1565b9061024d91610dd16127a9565b610ea2565b61021f61022b61022b9290565b61022b90610dd6565b61022b6001610de3565b61022b9061021f565b61022b9054610df6565b906001600160a01b03905b9181191691161790565b90610e2e61022b610e35926107ff565b8254610e09565b9055565b61022b9081565b61022b9054610e39565b634e487b7160e01b600052601160045260246000fd5b6000198114610e6f5760010190565b610e4a565b9060001990610e14565b61022b61022b61022b9290565b90610e9b61022b610e3592610e7e565b8254610e74565b610eac6000610de3565b906001600160a01b0382166001600160a01b038216148015610ff4575b8015610fd7575b610fc957600291610f09610efc610eef610eea8587610808565b610dff565b926001600160a01b031690565b916001600160a01b031690565b03610fbb57610f4681610f3c610f6794610f21610dec565b90610f41610f32610eea8484610808565b610f3c8684610808565b610e1e565b610808565b610f62610f5b610f566003610e40565b610e60565b6003610e8b565b6107ff565b7f9465fa0c962cc76958e6373a993326400c1c94f8be2fe3a952adfa7f60b2ea26610f9160405190565b600090a2610f9f6004610e40565b8190610faa565b9190565b03610fb25750565b61024d90611681565b6411d4cc8c0d60da1b6127c7565b64475332303360d81b6127c7565b50610fe461021f306107ff565b6001600160a01b03821614610ed0565b5061100061021f610dec565b6001600160a01b03821614610ec9565b9061024d91610dc4565b905061024d93929150336110de565b61022b61022b61022b9260ff1690565b61104661022b61022b9290565b60ff1690565b61107c61024d9461107560609498979561106b608086019a6000870152565b60ff166020850152565b6040830152565b0152565b6040513d6000823e3d90fd5b90610343610d716020937f19457468657265756d205369676e6564204d6573736167653a0a3332000000008152601c0190565b91906110ca565b9290565b8203918211610e6f57565b61022b90610e7e565b82519394936110ed6041610e7e565b906110fe610fa661022b848a6127f3565b106113865760009561110f87610de3565b94859361111b89610e7e565b80955b848710156113795787906111598c61114f8a8890604102016020810151604082015160609092015160001a92909190565b9590939091611029565b8681036112315750505061117761117261117c926110d5565b610dd6565b6107f6565b9061118782936110d5565b9161119561022b8a8a6127f3565b8310611223576111aa92878c61021f936128a3565b6001600160a01b038216111580156111fc575b80156111e0575b6111d257956001019561111e565b6423a998191b60d91b6127c7565b506111ec61021f610dec565b6001600160a01b038216146111c4565b5061120b610eea826002610808565b61121d6001600160a01b038b16610efc565b146111bd565b64475330323160d81b6127c7565b600195929394959261124284610e7e565b82036112c657505050505061117761117261125c926110d5565b9081838a6001600160a01b0383166001600160a01b038816141592836112a0575b505050611292576001600160a01b03166111aa565b64475330323560d81b6127c7565b6112bd92935061022b916108266112b8926008610808565b610e40565b14838a3861127d565b9060209592916112d6601e610e7e565b82111561136d5761133861133361134b939461130f6112f460405190565b80926113038d8301918261108c565b908103825203826102ed565b61132161131a825190565b9160200190565b209461132d6004610e7e565b906110bf565b611039565b9361134260405190565b9485948561104c565b84805203915afa15611368578a51906001600160a01b03166111aa565b611080565b61133861134b92611039565b5050505050505050509050565b64047533032360dc1b6127c7565b61139c610dec565b6113ae6001600160a01b038316610efc565b141590816113ba575090565b6113ca9150610eea906001610808565b6113da610efc61021f6000610de3565b141590565b61022b906113ee61021f610dec565b6001600160a01b03821614908115611406575b501590565b6113ca9150610eea906002610808565b6114429061024d93929594611429600090565b5061143681858985612a72565b94909760001993612b84565b908194612bc5565b6114779061024d929495939561145e600090565b5061146b81888885612a72565b97909660001993612b84565b80946040519460203d0186016040523d86523d6000602088013e612bc5565b81810292918115918404141715610e6f57565b369037565b9061024d6114c46114be84610d64565b93610327565b601f1901602084016114a9565b916020906114f06114eb6114e56020610e7e565b85611496565b6114ae565b906114fb6000610e7e565b84811015611517578086015484820285850101526001016114fb565b50935091505090565b61024d9061152c6127a9565b6115366000610de3565b906001600160a01b0382166001600160a01b0382161480156115d3575b6115c55760019161156d610efc610eef610eea8587610808565b036115b757610f6281610f3c61158594610f21610dec565b7fecdf3a3effea5783a3c4c2140e677577666428d44ed9d474a0b3a4c9943f84406115af60405190565b80805b0390a2565b6423a998981960d91b6127c7565b64475331303160d81b6127c7565b506115df61021f610dec565b6001600160a01b03821614611553565b61024d90611520565b61024d906116046127a9565b61161161022b6003610e40565b8111611673576116216000610e7e565b811461166557611632906004610e8b565b7f610f7ff2b304ae8903c3de74c60c6ab1f7d6226b3f52c5161905bb5ad4039c936116606106c36004610e40565b0390a1565b6423a999181960d91b6127c7565b64475332303160d81b6127c7565b61024d906115f8565b91906105ac816116a1816103439560209181520190565b8095610347565b634e487b7160e01b600052602160045260246000fd5b600211156116c857565b6116a8565b9061024d826116be565b61022b906116cd565b61048e906116d7565b9c9b99939760c08e61107c611787989a61024d9f9a61175f906101409f98610adb9f8661174d916117769d611740611758956117396117669f600061016088019701906001600160a01b03169052565b60208c0152565b89830360408b015261168a565b9e60608701906116e0565b6080850152565b60a0830152565b6001600160a01b031660e08c0152565b6001600160a01b03166101008a0152565b878203610120890152610582565b634e487b7160e01b600052601260045260246000fd5b81156117b5570490565b611795565b91908201809211610e6f57565b61022b913691610353565b9a9995909498939691979261181c858d8686868f8f8f9089908f6117f4600090565b506118166118026005610e40565b9a610f6261180f8d610e60565b6005610e8b565b98611ff9565b98611827888b612500565b7f4a204f620c8c5ccdca3fd54d003badd85ba500436a431f0cbda4f558c93c34c8549861185761021f6000610de3565b6001600160a01b038b1614159889611a70575b508b6118c6610fa661022b6118bb5a946118b56118a361189361188d6040610e7e565b84611496565b61189d603f610e7e565b906117ab565b916118af6109c4610e7e565b906117ba565b90612cb3565b6118af6101f4610e7e565b10611a62575a9d6118d76000610e7e565b861498611905946118ff908f8c156118f957506118f95a61132d6109c4610e7e565b956117c7565b91612b84565b986119128a9c5a90612cc4565b958a159182611a4a575b5081611a42575b50611080576119326000610e7e565b94858311611a2e575b5050505050846000146119fc577f442e715f626346e8c54381002da614f62bee8d27386535b2521ec8540898556e611978855b926106c760405190565b0390a25b61198557505050565b610f62611991916107ff565b91823b1561001b576119d392600092836119aa60405190565b8096819582946119be639327136860e01b90565b84526004840152151560248301526044820190565b03925af18015611368576119e45750565b61024d9060006119f481836102ed565b8101906108b7565b7f23428b18acfb3ea64b08dc0c1d296ea9c09702c09083ca5272e64d115b687d23611a268561196e565b0390a261197c565b611a389550612cf9565b388080808061193b565b905038611923565b909150611a5a610fa66000610e7e565b14903861191c565b64047533031360dc1b6127c7565b611a7c610f628c6107ff565b803b1561001b578f6000918f838d611ac08a958f988f998f9a8f9b8d9c8f99611aa460405190565b633af85da960e11b81529e8f9d8e9c8d9b339a60048e016116e9565b03925af18015611368571561186a57611adf9060006119f481836102ed565b3861186a565b905061024d929150612500565b6001600160401b03811161030e5760208091020190565b90610d7161036383611af2565b9061024d6114c4611b2684611b09565b93611af2565b634e487b7160e01b600052603260045260246000fd5b90611b4b825190565b811015611b5c576020809102010190565b611b2c565b611b73611b6e6003610e40565b611b16565b90611b7e6000610e7e565b91600290611b8a610dec565b92611b99610eea856002610808565b6001600160a01b0385165b6001600160a01b0382161461151757611be8611be2610eea83611bdc611ba495611bce8c8a611b42565b906001600160a01b03169052565b87610808565b96610e60565b959050611b99565b6000918291602082519201905af46040519081523d60208201523d6000604083013e60403d0190fd5b90929192611c2961036382611af2565b938185526020808601920283019281841161001b57915b838310611c4d5750505050565b60208091611c5b8486610240565b815201920191611c40565b61022b913691611c19565b5061022b906020810190610240565b818352602090920191906000825b828210611c9c575050505090565b90919293611ccb611cc4600192611cb38886611c71565b6001600160a01b0316815260200190565b9560200190565b93920190611c8e565b9061024d94611d04611cfc611d14936060969a99979a60808701918783036000890152611c80565b986020850152565b6001600160a01b03166040830152565b01906001600160a01b03169052565b959396611d91611d8b6115b297849a611d6a879e9697611d657f141df868a6331af528e38c83b7aa03edc19be66e37ae67f9285bf4f8e3c6a1a89f998e611c66565b612e06565b611d7761021f6000610de3565b6001600160a01b038a1603611de8576117c7565b85612fc2565b611d9b6000610e7e565b8311611dc1575b505050611dae336107ff565b96611db860405190565b95869586611cd4565b611ddf92611dcf6000610e7e565b611dd96001610e7e565b91612cf9565b50388080611da2565b611df189612f75565b6117c7565b9091611e00610dec565b6001600160a01b0381166001600160a01b038416141580611f53575b611f4557600090611e2d6000610e7e565b8514611f3757610eea93611e4086611b16565b918296611e4d6000610e7e565b94611e5c600198899586610808565b975b611eb3575b50506001600160a01b03166001600160a01b03861603611e81575052565b611eaf919450611e9c611e96611ea292610e7e565b846110bf565b85611b42565b516001600160a01b031690565b9252565b9091929496611ec461021f83610de3565b6001600160a01b038216141580611f1b575b80611f12575b15611f095790611f03611efd610eea84611bdc8a989796611bce8e8c611b42565b98610e60565b95611e5e565b96949291611e63565b50828810611edc565b506001600160a01b0384166001600160a01b0382161415611ed6565b6423a998981b60d91b6127c7565b64475331303560d81b6127c7565b50611f64611f6084611394565b1590565b611e1c565b611f77610eea336002610808565b611f87610efc61021f6000610de3565b14611feb57611fb19061022b611f9d6001610e7e565b611fac83610826336008610808565b610e8b565b611fba336107ff565b907ff2a0eb156472d1440255b0d7c1e19cc07115d1051fe605b0dce69acfec884d9c611fe560405190565b600090a3565b64047533033360dc1b6127c7565b61200c9a99989796959493929190613154565b61201761131a825190565b2090565b9061024d916120286127a9565b906120336000610de3565b916001600160a01b0383166001600160a01b0383161480156120d9575b6115c557600192612064610eea8386610808565b6120766001600160a01b038516610efc565b036120cb57610f3c8385610f41610f6295610f3c61209a610eea866120a19c610808565b9184610808565b7faab4fa2b463f581b2b32cb3b7e3b704b9ce37cc209b5fb4d77e593ace40542766115af60405190565b64475331303360d81b6127c7565b506120e561021f610dec565b6001600160a01b03831614612050565b9061024d9161201b565b61024d9061210b6127a9565b612162565b801515610239565b9050519061024d82612110565b9060208282031261001b5761022b91612118565b61022b7fb104e0b93118902c651344349b610029d694cfdec91c589c91ebafbcd0289947610e7e565b61216f61021f6000610de3565b6001600160a01b0382161415806121d0575b6121c2578061219891612192612139565b556107ff565b7fcd1966d6be16bc0c030cc741a06c6e0efaf8d00de2c8b6a9e11827e125de8bb86115af60405190565b64475333303160d81b6127c7565b506121dd610f62826107ff565b60206121e860405190565b6301ffc9a760e01b8152630b0803db60e31b600482015291829060249082905afa80156113685761221f9160009161222457501590565b612181565b611f60915060203d602011612246575b61223e81836102ed565b810190612125565b503d612234565b61024d906120ff565b61024d906122626127a9565b61226f61021f6000610de3565b6001600160a01b0382161415806122e9575b6122db57806122b1917f4a204f620c8c5ccdca3fd54d003badd85ba500436a431f0cbda4f558c93c34c8556107ff565b7f1151116914515bc0891ff9047a6cb32cf902546f83066499bcf8ba33d2353fa26115af60405190565b64047533330360dc1b6127c7565b506122f6610f62826107ff565b602061230160405190565b6301ffc9a760e01b815263736bd41d60e11b600482015291829060249082905afa8015611368576123389160009161222457501590565b612281565b61024d90612256565b9061024d92916123546127a9565b9190916123616000610de3565b926001600160a01b0384166001600160a01b0384161480156124cf575b80156124b2575b610fc957600291612399610eea8585610808565b6123ab6001600160a01b038716610efc565b03610fbb576001600160a01b0385166001600160a01b038316148015612496575b610fc9576123dd610eea8285610808565b6123ef6001600160a01b038416610efc565b036124885761245e94610f3c8385610f4188610f3c610f629761242561241b610eea8861242b9e610808565b610f3c8588610808565b84610808565b7ff8d49fc529812e9a7c5c50e69c20f0dccc0db8fa95c98bc58cc9a4f1c1299eaf61245560405190565b600090a26107ff565b7f9465fa0c962cc76958e6373a993326400c1c94f8be2fe3a952adfa7f60b2ea266115af60405190565b64475332303560d81b6127c7565b506124a261021f610dec565b6001600160a01b038316146123cc565b506124bf61021f306107ff565b6001600160a01b03841614612385565b506124db61021f610dec565b6001600160a01b0384161461237e565b9061024d9291612346565b61022b6004610e40565b9061250b6004610e40565b906125166000610e7e565b82146125265761024d92336110de565b64475330303160d81b6127c7565b61024d906125406127a9565b61254d90610f6281612f75565b7f5ac6c46c93c8d0e53714ba3b53db3e7c046da994313d7ed0d192028bc7c228b06115af60405190565b61024d90612534565b61022b7f47e79534a245952e8b16893a336b85a3d9ea9fa8c573f3d803afb92a79469218610e7e565b61048e906107ff565b90815260608101939261024d9290916040916125cf906020830152565b01906125a9565b6125de612580565b61200c6125ea60405190565b8092611303602083019130904690846125b2565b9061024d929161260c6127a9565b61261e565b8015610e6f576000190190565b9061263661262c6003610e40565b61132d6001610e7e565b8311611673576126466000610de3565b916001600160a01b0383166001600160a01b0383161480156126ec575b610fc957600292612677610eea8386610808565b6126896001600160a01b038516610efc565b0361248857610f3c8385610f416126ad95610f3c61209a610eea866126c29c610808565b610f62610f5b6126bd6003610e40565b612611565b7ff8d49fc529812e9a7c5c50e69c20f0dccc0db8fa95c98bc58cc9a4f1c1299eaf610f9160405190565b506126f861021f610dec565b6001600160a01b03831614612663565b9061024d92916125fe565b61271c336107ff565b7f3d0ce9bfc3ed7d6862dbb28b2dea94561fe714a1b4d019aa8af39730d1ad7c3d61274660405190565b34815280602081016115b2565b7f6c9a6c4a39284e37ed1cf53d337577d14212a4870fb976a4366c693b939918d55480156100285760008060405192368285373360601b36850152838260143601925af13d6000833e156127a5573d90f35b3d90fd5b6127b561021f306107ff565b33036127bd57565b64475330333160d81b5b6064906040519062461bcd60e51b825260206004830152600560248301526044820152fd5b1561001b57565b906127fe6000610e7e565b82146128285780612822610fa66110c661281b61022b9587611496565b95866117ab565b146127ec565b505061022b6000610e7e565b6001600160e01b03198116610239565b9050519061024d82612834565b9060208282031261001b5761022b91612844565b90815261022b9160408201916105c5565b61288961288361022b9290565b60e01b90565b6001600160e01b03191690565b61022b631626ba7e612876565b602093916128b085610e7e565b6128ba8185613205565b6128c8610fa661022b885190565b116129c1576128e6906128e18786880101519186613205565b613205565b6128f4610fa661022b875190565b116129b357612917610f628680956129409761290e606090565b500101936107ff565b9061292160405190565b809581948293612935631626ba7e60e01b90565b845260048401612865565b03915afa91821561136857600092612986575b5050612971612963612889612896565b916001600160e01b03191690565b0361297857565b6411d4cc0c8d60da1b6127c7565b6129a59250803d106129ac575b61299d81836102ed565b810190612851565b3880612953565b503d612993565b64475330323360d81b6127c7565b6423a998191960d91b6127c7565b156129d657565b60405162461bcd60e51b815260206004820152600560248201526411d4cc4c0d60da1b6044820152606490fd5b9050519061024d8261024f565b9060208282031261001b5761022b91612a03565b90612a67611d149161024d96989795612a5a608096612a5360a088019460008901906001600160a01b03169052565b6020870152565b8482036040860152610582565b9660608301906116e0565b9092939193612a7f600090565b50600093612a8b613227565b9586612a9861021f610dec565b33141580612b59575b612aaa906129cf565b612ab761021f6000610de3565b6001600160a01b03821603612ace575b5050505050565b602094959650612ae2610f626000926107ff565b92612b0b612aef60405190565b9788968795869463394614b960e11b8652339360048701612a24565b03925af190811561136857600091612b2a575b50903880808080612ac7565b612b4c915060203d602011612b52575b612b4481836102ed565b810190612a10565b38612b1e565b503d612b3a565b50612aaa612b6b610eea336001610808565b612b7b610efc61021f6000610de3565b14159050612aa1565b600094918594612b92600090565b50612ba6612ba060016116cd565b916116cd565b148514612bb9575060208351930191f490565b9060208451940192f190565b612bd261021f6000610de3565b6001600160a01b03821603612c4f575b505015612c1c57612bf2336107ff565b7f6895c13664aa4f67288b25d7a21d7aaa34916e355fb9b6fae0a139a9085becb86115af60405190565b612c25336107ff565b7facd2c8702804128fdb0db2bb49f6d127dd0181c13fd45dbfe16de0930e2bd3756115af60405190565b610f62612c5b916107ff565b803b1561001b5782600091612c889383612c7460405190565b8096819582946119be632acc37aa60e01b90565b03925af1801561136857612c9d575b80612be2565b612cad9060006119f481836102ed565b38612c97565b90808210612cbf575090565b905090565b61022b9190612cd5818311156127ec565b6110bf565b3d15612cf457612ce93d610d64565b903d6000602084013e565b606090565b909192949394612d07600090565b50612d126000610de3565b956001600160a01b038716612d26826107ff565b03612df75750612d45612d38326107ff565b966001600160a01b031690565b6001600160a01b03821603612db85750612d79612d9c93612d696000948594613205565b903a81108414612db057906127f3565b612d8381966107ff565b90612d8d60405190565b90818003925af1611401612cda565b612da257565b64475330313160d81b6127c7565b503a906127f3565b90612de393612dcd611f6094612dd293613205565b6127f3565b90612ddd82966107ff565b90613250565b612de957565b6423a998189960d91b6127c7565b956001600160a01b0316612d45565b612e106004610e40565b90600091612e20610fa684610e7e565b11612f6757612e3061022b825190565b831161167357612e3f82610e7e565b831461166557612e4d610dec565b908194612e5984610e7e565b955b612e6661022b845190565b871015612f3d57612e7a611ea28885611b42565b612e8386610de3565b6001600160a01b0381166001600160a01b038316148015612f22575b8015612f05575b8015612eea575b610fc957600290612ec7610efc610eef610eea8686610808565b03610fbb5781610f3c612ee494612edd93610808565b9660010190565b95612e5b565b506001600160a01b0382166001600160a01b03841614612ead565b50612f1261021f306107ff565b6001600160a01b03831614612ea6565b506001600160a01b0386166001600160a01b03831614612e9f565b610f5b9291965061024d959450612f6093610f3c612f5c926002610808565b5190565b6004610e8b565b64047533230360dc1b6127c7565b612f8161021f306107ff565b6001600160a01b03821614612fb4577f6c9a6c4a39284e37ed1cf53d337577d14212a4870fb976a4366c693b939918d555565b64047533430360dc1b6127c7565b90600191612fce610dec565b612fdb610eea8286610808565b612fe56000610de3565b90612ff86001600160a01b038316610efc565b0361306f5761021f82610f3c61300e9488610808565b6001600160a01b0382160361302257505050565b61302e611f60826132cc565b6130615761304d92611f60926130446000610e7e565b60001993612b84565b61305357565b64047533030360dc1b6127c7565b6423a998181960d91b6127c7565b64047533130360dc1b6127c7565b61022b7fbb8310d486368db6bd6f849402fdd73ad53d316b5a4b2644ad6efe0f941286d8610e7e565b98969492909b9a99979593916101608a019c60008b016130c4919052565b6001600160a01b031660208a015260408901526060880152608087016130e9916116e0565b60a086015260c085015260e08401526001600160a01b03166101008301526001600160a01b03166101208201526101400152565b61313061312a61022b9290565b60f81b90565b6001600160f81b03191690565b0180926001600160f81b0319169052565b01918252565b97929461319d999461318061130398939c97999499613171606090565b5061317a61307d565b9a6117c7565b61318b61131a825190565b206040519c8d9b60208d019b8c6130a6565b6131a861131a825190565b2061022b6131b6601961311d565b6131c0600161311d565b906113036131cc6125d6565b946131d660405190565b9586946020860194859261314e60016103439461314e828861313d60209b9a8c996001600160f81b0319169052565b9061321f6110c661022b92613218600090565b50846117ba565b8210156127ec565b61322f612139565b5490565b6001600160a01b03909116815260408101929161024d9160200152565b60049061329c60009361328e602096613267600090565b5061327563a9059cbb612876565b9261327f60405190565b9687948a860190815201613233565b8682018103825203836102ed565b828483519301916127105a03f13d80156132c8576020146132bd5750600090565b600051159015171590565b5090565b3b6132da610fa66000610e7e565b119056fea26469706673582212205310fb184a4a548aa8af3cd5d9a64efa46a49442b64d2d3cb1031e18d2a704dc64736f6c634300081b0033",
  "devdoc": {
    "author": "Stefan George - @Georgi87Richard Meissner - @rmeissner",
    "details": "Most important concepts:      - Threshold: Number of required confirmations for a Safe transaction.      - Owners: List of addresses that control the Safe. They are the only ones that can add/remove owners, change the threshold and        approve transactions. Managed in `OwnerManager`.      - Transaction Hash: Hash of a transaction is calculated using the EIP-712 typed structured data hashing scheme.      - Nonce: Each transaction should have a different nonce to prevent replay attacks.      - Signature: A valid signature of an owner of the Safe for a transaction hash.      - Guards: Guards are contracts that can execute pre- and post- transaction checks. There are two types of guards:          1. Transaction Guard: managed in `GuardManager` for transactions executed with `execTransaction`.          2. Module Guard: managed in `ModuleManager` for transactions executed with `execTransactionFromModule`      - Modules: Modules are contracts that can be used to extend the write functionality of a Safe. Managed in `ModuleManager`.      - Fallback: Fallback handler is a contract that can provide additional read-only functional for Safe. Managed in `FallbackManager`.      Note: This version of the implementation contract doesn't emit events for the sake of gas efficiency and therefore requires a tracing node for indexing/      For the events-based implementation see `SafeL2.sol`.",
    "kind": "dev",
    "methods": {
      "addOwnerWithThreshold(address,uint256)": {
        "details": "This can only be done via a Safe transaction.",
        "params": {
          "_threshold": "New threshold.",
          "owner": "New owner address."
        }
      },
      "approveHash(bytes32)": {
        "details": "This can be used with a pre-approved hash transaction signature.      IMPORTANT: The approved hash stays approved forever. There's no revocation mechanism, so it behaves similarly to ECDSA signatures",
        "params": {
          "hashToApprove": "The hash to mark as approved for signatures that are verified by this contract."
        }
      },
      "changeThreshold(uint256)": {
        "details": "This can only be done via a Safe transaction.",
        "params": {
          "_threshold": "New threshold."
        }
      },
      "checkNSignatures(address,bytes32,bytes,uint256)": {
        "details": "Since the EIP-1271 does an external call, be mindful of reentrancy attacks.",
        "params": {
          "dataHash": "Hash of the data (could be either a message hash or transaction hash)",
          "executor": "Address that executing the transaction.         Make sure that the executor address is a legitmate executor.        Incorrectly passed the executor might reduce the threshold by 1 signature. ",
          "requiredSignatures": "Amount of required valid signatures.",
          "signatures": "Signature data that should be verified.                   Can be packed ECDSA signature ({bytes32 r}{bytes32 s}{uint8 v}), contract signature (EIP-1271) or approved hash."
        }
      },
      "checkNSignatures(bytes32,bytes,bytes,uint256)": {
        "details": "This function is provided for compatibility with previous versions.      Use `checkNSignatures(address,bytes32,bytes,uint256)` instead.",
        "params": {
          "data": "**IGNORED** The data pre-image.",
          "dataHash": "Hash of the data (could be either a message hash or transaction hash)",
          "requiredSignatures": "Amount of required valid signatures.",
          "signatures": "Signature data that should be verified.                   Can be packed ECDSA signature ({bytes32 r}{bytes32 s}{uint8 v}), contract signature (EIP-1271) or approved hash."
        }
      },
      "checkSignatures(bytes32,bytes)": {
        "params": {
          "dataHash": "Hash of the data (could be either a message hash or transaction hash)",
          "signatures": "Signature data that should be verified.                   Can be packed ECDSA signature ({bytes32 r}{bytes32 s}{uint8 v}), contract signature (EIP-1271) or approved hash."
        }
      },
      "checkSignatures(bytes32,bytes,bytes)": {
        "details": "This function is provided for compatibility with previous versions.      Use `checkSignatures(bytes32,bytes)` instead.",
        "params": {
          "data": "**IGNORED** The data pre-image.",
          "dataHash": "Hash of the data (could be either a message hash or transaction hash).",
          "signatures": "Signature data that should be verified.                   Can be packed ECDSA signature ({bytes32 r}{bytes32 s}{uint8 v}), contract signature (EIP-1271) or approved hash."
        }
      },
      "disableModule(address,address)": {
        "details": "This can only be done via a Safe transaction.",
        "params": {
          "module": "Module to be removed.",
          "prevModule": "Previous module in the modules linked list."
        }
      },
      "domainSeparator()": {
        "details": "Returns the domain separator for this contract, as defined in the EIP-712 standard.",
        "returns": {
          "_0": "bytes32 The domain separator hash."
        }
      },
      "enableModule(address)": {
        "details": "This can only be done via a Safe transaction.",
        "params": {
          "module": "Module to be whitelisted."
        }
      },
      "execTransaction(address,uint256,bytes,uint8,uint256,uint256,uint256,address,address,bytes)": {
        "details": "The fees are always transferred, even if the user transaction fails.      This method doesn't perform any sanity check of the transaction, such as:      - if the contract at `to` address has code or not      - if the `gasToken` is a contract or not      It is the responsibility of the caller to perform such checks.",
        "params": {
          "baseGas": "Gas costs that are independent of the transaction execution(e.g. base transaction fee, signature check, payment of the refund)",
          "data": "Data payload of Safe transaction.",
          "gasPrice": "Gas price that should be used for the payment calculation.",
          "gasToken": "Token address (or 0 if ETH) that is used for the payment.",
          "operation": "Operation type of Safe transaction.",
          "refundReceiver": "Address of receiver of gas payment (or 0 if tx.origin).",
          "safeTxGas": "Gas that should be used for the Safe transaction.",
          "signatures": "Signature data that should be verified.                   Can be packed ECDSA signature ({bytes32 r}{bytes32 s}{uint8 v}), contract signature (EIP-1271) or approved hash.",
          "to": "Destination address of Safe transaction.",
          "value": "Ether value of Safe transaction."
        },
        "returns": {
          "success": "Boolean indicating transaction's success."
        }
      },
      "execTransactionFromModule(address,uint256,bytes,uint8)": {
        "params": {
          "data": "Data payload of module transaction.",
          "operation": "Operation type of module transaction.",
          "to": "Destination address of module transaction.",
          "value": "Ether value of module transaction."
        },
        "returns": {
          "success": "Boolean flag indicating if the call succeeded."
        }
      },
      "execTransactionFromModuleReturnData(address,uint256,bytes,uint8)": {
        "params": {
          "data": "Data payload of module transaction.",
          "operation": "Operation type of module transaction.",
          "to": "Destination address of module transaction.",
          "value": "Ether value of module transaction."
        },
        "returns": {
          "returnData": "Data returned by the call.",
          "success": "Boolean flag indicating if the call succeeded."
        }
      },
      "getModulesPaginated(address,uint256)": {
        "params": {
          "pageSize": "Maximum number of modules that should be returned. Has to be > 0",
          "start": "Start of the page. Has to be a module or start pointer (0x1 address)"
        },
        "returns": {
          "array": "Array of modules.",
          "next": "Start of the next page."
        }
      },
      "getOwners()": {
        "returns": {
          "_0": "Array of Safe owners."
        }
      },
      "getStorageAt(uint256,uint256)": {
        "params": {
          "length": "- the number of words (32 bytes) of data to read",
          "offset": "- the offset in the current contract's storage in words to start reading from"
        },
        "returns": {
          "_0": "the bytes that were read."
        }
      },
      "getThreshold()": {
        "returns": {
          "_0": "Threshold number."
        }
      },
      "getTransactionHash(address,uint256,bytes,uint8,uint256,uint256,uint256,address,address,uint256)": {
        "params": {
          "_nonce": "Transaction nonce.",
          "baseGas": "Gas costs for data used to trigger the safe transaction.",
          "data": "Data payload.",
          "gasPrice": "Maximum gas price that should be used for this transaction.",
          "gasToken": "Token address (or 0 if ETH) that is used for the payment.",
          "operation": "Operation type.",
          "refundReceiver": "Address of receiver of gas payment (or 0 if tx.origin).",
          "safeTxGas": "Gas that should be used for the safe transaction.",
          "to": "Destination address.",
          "value": "Ether value."
        },
        "returns": {
          "_0": "Transaction hash."
        }
      },
      "isModuleEnabled(address)": {
        "returns": {
          "_0": "True if the module is enabled"
        }
      },
      "isOwner(address)": {
        "returns": {
          "_0": "Boolean if owner is an owner of the Safe."
        }
      },
      "removeOwner(address,address,uint256)": {
        "details": "This can only be done via a Safe transaction.",
        "params": {
          "_threshold": "New threshold.",
          "owner": "Owner address to be removed.",
          "prevOwner": "Owner that pointed to the owner to be removed in the linked list"
        }
      },
      "setFallbackHandler(address)": {
        "details": "Only fallback calls without value and with data will be forwarded.      This can only be done via a Safe transaction.      Cannot be set to the Safe itself.",
        "params": {
          "handler": "contract to handle fallback calls."
        }
      },
      "setGuard(address)": {
        "details": "Set a guard that checks transactions before execution      This can only be done via a Safe transaction.       IMPORTANT: Since a guard has full power to block Safe transaction execution,        a broken guard can cause a denial of service for the Safe. Make sure to carefully        audit the guard code and design recovery mechanisms.",
        "params": {
          "guard": "The address of the guard to be used or the 0 address to disable the guard"
        }
      },
      "setModuleGuard(address)": {
        "details": "Set a module guard that checks transactions initiated by the module before execution      This can only be done via a Safe transaction.       IMPORTANT: Since a module guard has full power to block Safe transaction execution initiatied via a module,        a broken module guard can cause a denial of service for the Safe modules. Make sure to carefully        audit the module guard code and design recovery mechanisms.",
        "params": {
          "moduleGuard": "The address of the module guard to be used or the zero address to disable the module guard."
        }
      },
      "setup(address[],uint256,address,bytes,address,address,uint256,address)": {
        "details": "This method can only be called once.      If a proxy was created without setting up, anyone can call setup and claim the proxy.",
        "params": {
          "_owners": "List of Safe owners.",
          "_threshold": "Number of required confirmations for a Safe transaction.",
          "data": "Data payload for optional delegate call.",
          "fallbackHandler": "Handler for fallback calls to this contract",
          "payment": "Value that should be paid",
          "paymentReceiver": "Address that should receive the payment (or 0 if tx.origin)",
          "paymentToken": "Token that should be used for the payment (0 is ETH)",
          "to": "Contract address for optional delegate call."
        }
      },
      "simulateAndRevert(address,bytes)": {
        "details": "Performs a delegatecall on a targetContract in the context of self. Internally reverts execution to avoid side effects (making it static). This method reverts with data equal to `abi.encode(bool(success), bytes(response))`. Specifically, the `returndata` after a call to this method will be: `success:bool || response.length:uint256 || response:bytes`.",
        "params": {
          "calldataPayload": "Calldata that should be sent to the target contract (encoded method name and arguments).",
          "targetContract": "Address of the contract containing the code to execute."
        }
      },
      "swapOwner(address,address,address)": {
        "details": "This can only be done via a Safe transaction.",
        "params": {
          "newOwner": "New owner address.",
          "oldOwner": "Owner address to be replaced.",
          "prevOwner": "Owner that pointed to the owner to be replaced in the linked list"
        }
      }
    },
    "stateVariables": {
      "VERSION": {
        "return": "Version string.",
        "returns": {
          "_0": "Version string."
        }
      },
      "approvedHashes": {
        "params": {
          "messageHash": "Hash of message that should be checked.",
          "owner": "Owner address that should be checked."
        },
        "return": "Number denoting if an owner approved the hash.",
        "returns": {
          "_0": "Number denoting if an owner approved the hash."
        }
      },
      "nonce": {
        "return": "Nonce.",
        "returns": {
          "_0": "Nonce."
        }
      },
      "signedMessages": {
        "params": {
          "messageHash": "Hash of message that should be checked."
        },
        "return": "Number denoting if an owner signed the hash.",
        "returns": {
          "_0": "Number denoting if an owner signed the hash."
        }
      }
    },
    "title": "Safe - A multisignature wallet with support for confirmations using signed messages based on EIP-712.",
    "version": 1
  },
  "userdoc": {
    "kind": "user",
    "methods": {
      "VERSION()": {
        "notice": "Returns the version of the Safe contract."
      },
      "addOwnerWithThreshold(address,uint256)": {
        "notice": "Adds the owner `owner` to the Safe and updates the threshold to `_threshold`."
      },
      "approveHash(bytes32)": {
        "notice": "Marks hash `hashToApprove` as approved."
      },
      "approvedHashes(address,bytes32)": {
        "notice": "Returns a uint if the messageHash is approved by the owner."
      },
      "changeThreshold(uint256)": {
        "notice": "Changes the threshold of the Safe to `_threshold`."
      },
      "checkNSignatures(address,bytes32,bytes,uint256)": {
        "notice": "Checks whether the signature provided is valid for the provided data and hash. Reverts otherwise."
      },
      "checkNSignatures(bytes32,bytes,bytes,uint256)": {
        "notice": "Checks whether the signature provided is valid for the provided hash. Reverts otherwise.         The `data` parameter is completely ignored during signature verification."
      },
      "checkSignatures(bytes32,bytes)": {
        "notice": "Checks whether the signature provided is valid for the provided data and hash. Reverts otherwise."
      },
      "checkSignatures(bytes32,bytes,bytes)": {
        "notice": "Checks whether the signature provided is valid for the provided hash. Reverts otherwise.         The `data` parameter is completely ignored during signature verification."
      },
      "disableModule(address,address)": {
        "notice": "Disables the module `module` for the Safe."
      },
      "enableModule(address)": {
        "notice": "Enables the module `module` for the Safe."
      },
      "execTransaction(address,uint256,bytes,uint8,uint256,uint256,uint256,address,address,bytes)": {
        "notice": "Executes a `operation` {0: Call, 1: DelegateCall}} transaction to `to` with `value` (Native Currency)          and pays `gasPrice` * `gasLimit` in `gasToken` token to `refundReceiver`."
      },
      "execTransactionFromModule(address,uint256,bytes,uint8)": {
        "notice": "Execute `operation` (0: Call, 1: DelegateCall) to `to` with `value` (Native Token)"
      },
      "execTransactionFromModuleReturnData(address,uint256,bytes,uint8)": {
        "notice": "Execute `operation` (0: Call, 1: DelegateCall) to `to` with `value` (Native Token) and return data"
      },
      "getModulesPaginated(address,uint256)": {
        "notice": "Returns an array of modules.         If all entries fit into a single page, the next pointer will be 0x1.         If another page is present, next will be the last element of the returned array."
      },
      "getOwners()": {
        "notice": "Returns a list of Safe owners."
      },
      "getStorageAt(uint256,uint256)": {
        "notice": "Reads `length` bytes of storage in the currents contract"
      },
      "getThreshold()": {
        "notice": "Returns the number of required confirmations for a Safe transaction aka the threshold."
      },
      "getTransactionHash(address,uint256,bytes,uint8,uint256,uint256,uint256,address,address,uint256)": {
        "notice": "Returns transaction hash to be signed by owners."
      },
      "isModuleEnabled(address)": {
        "notice": "Returns if an module is enabled"
      },
      "isOwner(address)": {
        "notice": "Returns if `owner` is an owner of the Safe."
      },
      "nonce()": {
        "notice": "Returns the nonce of the Safe contract."
      },
      "removeOwner(address,address,uint256)": {
        "notice": "Removes the owner `owner` from the Safe and updates the threshold to `_threshold`."
      },
      "setFallbackHandler(address)": {
        "notice": "Set Fallback Handler to `handler` for the Safe."
      },
      "setGuard(address)": {
        "notice": "Set Transaction Guard `guard` for the Safe. Make sure you trust the guard."
      },
      "setModuleGuard(address)": {
        "notice": "Set Module Guard `moduleGuard` for the Safe. Make sure you trust the module guard."
      },
      "setup(address[],uint256,address,bytes,address,address,uint256,address)": {
        "notice": "Sets an initial storage of the Safe contract."
      },
      "signedMessages(bytes32)": {
        "notice": "Returns a uint if the messageHash is signed by the owner."
      },
      "swapOwner(address,address,address)": {
        "notice": "Replaces the owner `oldOwner` in the Safe with `newOwner`."
      }
    },
    "version": 1
  },
  "storageLayout": {
    "storage": [
      {
        "astId": 4033,
        "contract": "contracts/Safe.sol:Safe",
        "label": "singleton",
        "offset": 0,
        "slot": "0",
        "type": "t_address"
      },
      {
        "astId": 2804,
        "contract": "contracts/Safe.sol:Safe",
        "label": "modules",
        "offset": 0,
        "slot": "1",
        "type": "t_mapping(t_address,t_address)"
      },
      {
        "astId": 3418,
        "contract": "contracts/Safe.sol:Safe",
        "label": "owners",
        "offset": 0,
        "slot": "2",
        "type": "t_mapping(t_address,t_address)"
      },
      {
        "astId": 3420,
        "contract": "contracts/Safe.sol:Safe",
        "label": "ownerCount",
        "offset": 0,
        "slot": "3",
        "type": "t_uint256"
      },
      {
        "astId": 3422,
        "contract": "contracts/Safe.sol:Safe",
        "label": "threshold",
        "offset": 0,
        "slot": "4",
        "type": "t_uint256"
      },
      {
        "astId": 1352,
        "contract": "contracts/Safe.sol:Safe",
        "label": "nonce",
        "offset": 0,
        "slot": "5",
        "type": "t_uint256"
      },
      {
        "astId": 1354,
        "contract": "contracts/Safe.sol:Safe",
        "label": "_deprecatedDomainSeparator",
        "offset": 0,
        "slot": "6",
        "type": "t_bytes32"
      },
      {
        "astId": 1359,
        "contract": "contracts/Safe.sol:Safe",
        "label": "signedMessages",
        "offset": 0,
        "slot": "7",
        "type": "t_mapping(t_bytes32,t_uint256)"
      },
      {
        "astId": 1366,
        "contract": "contracts/Safe.sol:Safe",
        "label": "approvedHashes",
        "offset": 0,
        "slot": "8",
        "type": "t_mapping(t_address,t_mapping(t_bytes32,t_uint256))"
      }
    ],
    "types": {
      "t_address": {
        "encoding": "inplace",
        "label": "address",
        "numberOfBytes": "20"
      },
      "t_bytes32": {
        "encoding": "inplace",
        "label": "bytes32",
        "numberOfBytes": "32"
      },
      "t_mapping(t_address,t_address)": {
        "encoding": "mapping",
        "key": "t_address",
        "label": "mapping(address => address)",
        "numberOfBytes": "32",
        "value": "t_address"
      },
      "t_mapping(t_address,t_mapping(t_bytes32,t_uint256))": {
        "encoding": "mapping",
        "key": "t_address",
        "label": "mapping(address => mapping(bytes32 => uint256))",
        "numberOfBytes": "32",
        "value": "t_mapping(t_bytes32,t_uint256)"
      },
      "t_mapping(t_bytes32,t_uint256)": {
        "encoding": "mapping",
        "key": "t_bytes32",
        "label": "mapping(bytes32 => uint256)",
        "numberOfBytes": "32",
        "value": "t_uint256"
      },
      "t_uint256": {
        "encoding": "inplace",
        "label": "uint256",
        "numberOfBytes": "32"
      }
    }
  }
}