{
  "address": "0x93db64f9d41313DbC7aF7A401d94968A58126463",
  "abi": [
    {
      "inputs": [],
      "stateMutability": "nonpayable",
      "type": "constructor"
    },
    {
      "anonymous": false,
      "inputs": [
        {
          "indexed": false,
          "internalType": "address",
          "name": "singleton",
          "type": "address"
        }
      ],
      "name": "ChangedMasterCopy",
      "type": "event"
    },
    {
      "anonymous": false,
      "inputs": [
        {
          "indexed": false,
          "internalType": "address",
          "name": "to",
          "type": "address"
        },
        {
          "indexed": false,
          "internalType": "uint256",
          "name": "value",
          "type": "uint256"
        },
        {
          "indexed": false,
          "internalType": "bytes",
          "name": "data",
          "type": "bytes"
        },
        {
          "indexed": false,
          "internalType": "enum Enum.Operation",
          "name": "operation",
          "type": "uint8"
        },
        {
          "indexed": false,
          "internalType": "uint256",
          "name": "safeTxGas",
          "type": "uint256"
        },
        {
          "indexed": false,
          "internalType": "uint256",
          "name": "baseGas",
          "type": "uint256"
        },
        {
          "indexed": false,
          "internalType": "uint256",
          "name": "gasPrice",
          "type": "uint256"
        },
        {
          "indexed": false,
          "internalType": "address",
          "name": "gasToken",
          "type": "address"
        },
        {
          "indexed": false,
          "internalType": "address payable",
          "name": "refundReceiver",
          "type": "address"
        },
        {
          "indexed": false,
          "internalType": "bytes",
          "name": "signatures",
          "type": "bytes"
        },
        {
          "indexed": false,
          "internalType": "bytes",
          "name": "additionalInfo",
          "type": "bytes"
        }
      ],
      "name": "SafeMultiSigTransaction",
      "type": "event"
    },
    {
      "anonymous": false,
      "inputs": [
        {
          "indexed": true,
          "internalType": "address",
          "name": "initiator",
          "type": "address"
        },
        {
          "indexed": false,
          "internalType": "address[]",
          "name": "owners",
          "type": "address[]"
        },
        {
          "indexed": false,
          "internalType": "uint256",
          "name": "threshold",
          "type": "uint256"
        },
        {
          "indexed": false,
          "internalType": "address",
          "name": "initializer",
          "type": "address"
        },
        {
          "indexed": false,
          "internalType": "address",
          "name": "fallbackHandler",
          "type": "address"
        }
      ],
      "name": "SafeSetup",
      "type": "event"
    },
    {
      "inputs": [],
      "name": "MIGRATION_SINGLETON",
      "outputs": [
        {
          "internalType": "address",
          "name": "",
          "type": "address"
        }
      ],
      "stateMutability": "view",
      "type": "function"
    },
    {
      "inputs": [
        {
          "internalType": "address",
          "name": "l2Singleton",
          "type": "address"
        },
        {
          "internalType": "address",
          "name": "fallbackHandler",
          "type": "address"
        }
      ],
      "name": "migrateFromV111",
      "outputs": [],
      "stateMutability": "nonpayable",
      "type": "function"
    },
    {
      "inputs": [
        {
          "internalType": "address",
          "name": "l2Singleton",
          "type": "address"
        }
      ],
      "name": "migrateToL2",
      "outputs": [],
      "stateMutability": "nonpayable",
      "type": "function"
    }
  ],
  "transactionHash": "0xe83a6a733ca22bca651ad6d9ef9ce91f90111225c2b034ae5b3e470b144e5685",
  "args": [],
  "numDeployments": 1,
  "solcInputHash": "d6372cac540e87137b93d1ade6e31ca3",
  "bytecode": "0x60a06040523461003f57610011610079565b604051610f9a61008882396080518181816081015281816101f7015281816107980152610f0a0152610f9a90f35b600080fd5b6100589061005b906001600160a01b031682565b90565b6001600160a01b031690565b61005890610044565b61005890610067565b61008230610070565b60805256fe6080604052600436101561001257600080fd5b60003560e01c806372f7a95614610042578063d9a208121461003d5763ef2624ae0361005257610132565b610100565b61006c565b600091031261005257565b600080fd5b6001600160a01b031690565b90565b9052565b565b346100525761007c366004610047565b6100bb7f00000000000000000000000000000000000000000000000000000000000000006040515b918291826001600160a01b03909116815260200190565b0390f35b6001600160a01b0381160361005257565b9050359061006a826100bf565b9190604083820312610052576100639060206100f982866100d0565b94016100d0565b34610052576101196101133660046100dd565b906108eb565b604051005b9060208282031261005257610063916100d0565b346100525761011961014536600461011e565b610b36565b61006390610057906001600160a01b031682565b6100639061014a565b6100639061015e565b0190565b1561017b57565b60405162461bcd60e51b815260206004820152603060248201527f4d6967726174696f6e2073686f756c64206f6e6c792062652063616c6c65642060448201526f1d9a584819195b1959d85d1958d85b1b60821b6064820152608490fd5b9061006a9161022b6101ea30610167565b6102246001600160a01b037f000000000000000000000000000000000000000000000000000000000000000016916001600160a01b031690565b1415610174565b6102a5565b6100639081565b6100639054610230565b6100636100636100639290565b1561025557565b60405162461bcd60e51b815260206004820152602260248201527f53616665206d7573742068617665206e6f7420657865637574656420616e79206044820152610e8f60f31b6064820152608490fd5b9061006a916102ce6102b76005610237565b6102c86102c46001610241565b9190565b1461024e565b6105d3565b156102da57565b60405162461bcd60e51b815260206004820152602160248201527f66616c6c6261636b48616e646c6572206973206e6f74206120636f6e747261636044820152601d60fa1b6064820152608490fd5b61006390610057565b6100639054610329565b634e487b7160e01b600052604160045260246000fd5b90601f01601f1916810190811067ffffffffffffffff82111761037457604052565b61033c565b9061006a61038660405190565b9283610352565b67ffffffffffffffff811161037457602090601f01601f19160190565b60005b8381106103bd5750506000910152565b81810151838201526020016103ad565b909291926103e26103dd8261038d565b610379565b93818552818301116100525761006a9160208501906103aa565b9080601f83011215610052578151610063926020016103cd565b9060208282031261005257815167ffffffffffffffff81116100525761006392016103fc565b6040513d6000823e3d90fd5b6101706104609260209261045a815190565b94859290565b938491016103aa565b61006391610448565b1561047957565b60405162461bcd60e51b815260206004820152602b60248201527f50726f76696465642073696e676c65746f6e2076657273696f6e206973206e6f60448201526a1d081cdd5c1c1bdc9d195960aa1b6064820152608490fd5b6100576100636100639290565b610063906104d2565b906105086105016104f7845190565b8084529260200190565b9260200190565b9060005b8181106105195750505090565b90919261053f61053860019286516001600160a01b0316815260200190565b9460200190565b92910161050c565b61058561006a9461057561056d60609599989699608086019086820360008801526104e8565b986020850152565b6001600160a01b03166040830152565b01906001600160a01b03169052565b6105a76105a16100639290565b60e01b90565b6001600160e01b03191690565b6001600160a01b03909116815260408101929161006a91602090610585565b6105e46105df83610b3f565b6102d3565b6105f96105f46105f46000610332565b610167565b63ffa1ad74600061060960405190565b80936106158460e01b90565b825260049082905afa908115610874576106b36000926106cb9484916108d1575b5061065f61064360405190565b8092610653602083019182610469565b90810382520382610352565b61067161066a825190565b9160200190565b206106ad6102c461068160405190565b61069e81602081016106538164312e312e3160d81b815260050190565b6106a961066a825190565b2090565b14610472565b6106bf6105f485610167565b60405193849260e01b90565b825260049082905afa801561087457610738916000916108ae575b506106f361064360405190565b6106fe61066a825190565b2061072861070b60405190565b61069e816020810161065381640312e332e360dc1b815260050190565b8114908115610879575b50610472565b6107476105f46105f430610167565b90813b1561005257600061075a60405190565b63f08a032360e01b81526001600160a01b0385166004820152928390602490829084905af180156108745761006a9360049361085192610856575b507f00000000000000000000000000000000000000000000000000000000000000007f141df868a6331af528e38c83b7aa03edc19be66e37ae67f9285bf4f8e3c6a1a86107e0610c1a565b6107e987610237565b90610814856108016107fb60006104df565b96610167565b9561080b60405190565b94859485610547565b0390a261084261082763d9a20812610594565b918461083260405190565b96879460208601908152016105b4565b60208201810382520383610352565b610e88565b61086e9060006108668183610352565b810190610047565b38610795565b61043c565b90506108a76102c461088a60405190565b61069e81602081016106538164312e342e3160d81b815260050190565b1438610732565b6108cb91503d806000833e6108c38183610352565b810190610416565b386106e6565b6108e591503d8086833e6108c38183610352565b38610636565b9061006a916101d9565b61006a906109056101ea30610167565b61006a906109166102b76005610237565b6109d9565b1561092257565b60405162461bcd60e51b815260206004820152602360248201527f5361666520697320616c7265616479207573696e67207468652073696e676c656044820152623a37b760e91b6064820152608490fd5b1561097a57565b60405162461bcd60e51b815260206004820152603160248201527f4c322073696e676c65746f6e206d757374206d617463682063757272656e74206044820152703b32b939b4b7b71039b4b733b632ba37b760791b6064820152608490fd5b610a076105f46109e96000610332565b6105f46001600160a01b0385166001600160a01b038316141561091b565b63ffa1ad74916000610a1860405190565b8093610a248660e01b90565b825260049082905afa91821561087457610a74926000918291610b1c575b50610a4f61064360405190565b610a5a61066a825190565b2093610a686105f484610167565b60405194859260e01b90565b825260049082905afa80156108745761006a93610aba610ac692600495600091610b01575b50610aa661064360405190565b610ab161066a825190565b20918214610973565b61072861070b60405190565b610851610ad663ef2624ae610594565b61084283610ae360405190565b95869360208501908152016001600160a01b03909116815260200190565b610b1691503d806000833e6108c38183610352565b38610a99565b610b3091503d8084833e6108c38183610352565b38610a42565b61006a906108f5565b3b610b4d6102c46000610241565b1190565b67ffffffffffffffff81116103745760208091020190565b90610b766103dd83610b51565b918252565b369037565b9061006a610b96610b9084610b69565b93610b51565b601f190160208401610b7b565b90610bad90610167565b600052602052604060002090565b634e487b7160e01b600052603260045260246000fd5b90610bda825190565b811015610beb576020809102010190565b610bbb565b634e487b7160e01b600052601160045260246000fd5b6000198114610c155760010190565b610bf0565b610c2c610c276003610237565b610b80565b6001610c3860016104df565b90610c436000610241565b9160029082610c5b610c56836002610ba3565b610332565b905b610c6a575b505050505090565b6001600160a01b0382166001600160a01b03821614610cbc57610caf610c5682610ca9610cb594610c9b8a8c610bd1565b906001600160a01b03169052565b85610ba3565b94610c06565b9383610c5d565b610c62565b90610cd1610063610ced92610167565b82546001600160a01b0319166001600160a01b03919091161790565b9055565b610cfe6100636100639290565b60ff1690565b61006690610cf1565b604090610d3d61006a9496959396610d2d60608401986000850190610d04565b6001600160a01b03166020830152565b0152565b61006690610241565b610d6b610d7460209361017093610d5f815190565b80835293849260200190565b958691016103aa565b601f01601f191690565b634e487b7160e01b600052602160045260246000fd5b60021115610d9e57565b610d7e565b9061006a82610d94565b61006390610da3565b61006690610dad565b98939596610e3b610e7998610e31610e669860806100639f9d978f90610e1f610e4599610e559c610e12610e2a94610e0861016088019460008901906001600160a01b03169052565b6020870190610d41565b8482036040860152610d4a565b9d6060830190610db6565b0190610d41565b60a08c0190610d41565b60c08a0190610d41565b6001600160a01b031660e0880152565b6001600160a01b0316610100860152565b8381036101208501526000815260200190565b91610140818403910152610d4a565b610f5f907f66753cd2356569ee081232e3be8909b950e0a76c1f8460c3a5e3c2be32b11bed7f75e41bc35ff1bf14d81d1d2f649c0084a0f974f9289c803ec9898eeec4c8d0b893610eda836000610cc1565b600090610f54610eea6004610237565b610f08610ef660405190565b80926106536020830191338984610d0d565b7f000000000000000000000000000000000000000000000000000000000000000092610f33856104df565b8580806001610f4185610167565b95610f4b60405190565b9a8b9a8b610dbf565b0390a16040516100a4565b0390a156fea2646970667358221220cffb90a2370891d3d7934646de0ca2338fe68a1e77857d37916c14b3d1a4e53064736f6c634300081b0033",
  "devdoc": {
    "details": "IMPORTANT: The migration will only work with proxies that store the implementation address in the storage slot 0.",
    "events": {
      "ChangedMasterCopy(address)": {
        "params": {
          "singleton": "New master copy address"
        }
      }
    },
    "kind": "dev",
    "methods": {
      "constructor": {
        "details": "Initializes the migrationSingleton with the contract's own address."
      },
      "migrateFromV111(address,address)": {
        "details": "This function should only be called via a delegatecall to perform the upgrade. Singletons version will be checked, so it implies that contracts exist. A valid and compatible fallbackHandler needs to be provided, only existence will be checked."
      },
      "migrateToL2(address)": {
        "details": "This function should only be called via a delegatecall to perform the upgrade. Singletons versions will be compared, so it implies that contracts exist"
      }
    },
    "title": "Migration Contract for updating a Safe from 1.1.1/1.3.0/1.4.1 versions to a L2 version. Useful when replaying a Safe from a non L2 network in a L2 network.",
    "version": 1
  },
  "userdoc": {
    "events": {
      "ChangedMasterCopy(address)": {
        "notice": "Event indicating a change of master copy address."
      }
    },
    "kind": "user",
    "methods": {
      "constructor": {
        "notice": "Constructor"
      },
      "migrateFromV111(address,address)": {
        "notice": "Migrate from Safe 1.1.1 Singleton to 1.3.0 or 1.4.1 L2 Safe is required to have nonce 0 so backend can support it after the migration"
      },
      "migrateToL2(address)": {
        "notice": "Migrate from Safe 1.3.0/1.4.1 Singleton (L1) to the same version provided L2 singleton Safe is required to have nonce 0 so backend can support it after the migration"
      }
    },
    "notice": "This contract facilitates the migration of a Safe contract from version 1.1.1 to 1.3.0/1.4.1 L2, 1.3.0 to 1.3.0L2 or from 1.4.1 to 1.4.1L2         Other versions are not supported",
    "version": 1
  },
  "storageLayout": {
    "storage": [
      {
        "astId": 6142,
        "contract": "contracts/libraries/SafeToL2Migration.sol:SafeToL2Migration",
        "label": "singleton",
        "offset": 0,
        "slot": "0",
        "type": "t_address"
      },
      {
        "astId": 6146,
        "contract": "contracts/libraries/SafeToL2Migration.sol:SafeToL2Migration",
        "label": "modules",
        "offset": 0,
        "slot": "1",
        "type": "t_mapping(t_address,t_address)"
      },
      {
        "astId": 6150,
        "contract": "contracts/libraries/SafeToL2Migration.sol:SafeToL2Migration",
        "label": "owners",
        "offset": 0,
        "slot": "2",
        "type": "t_mapping(t_address,t_address)"
      },
      {
        "astId": 6152,
        "contract": "contracts/libraries/SafeToL2Migration.sol:SafeToL2Migration",
        "label": "ownerCount",
        "offset": 0,
        "slot": "3",
        "type": "t_uint256"
      },
      {
        "astId": 6154,
        "contract": "contracts/libraries/SafeToL2Migration.sol:SafeToL2Migration",
        "label": "threshold",
        "offset": 0,
        "slot": "4",
        "type": "t_uint256"
      },
      {
        "astId": 6156,
        "contract": "contracts/libraries/SafeToL2Migration.sol:SafeToL2Migration",
        "label": "nonce",
        "offset": 0,
        "slot": "5",
        "type": "t_uint256"
      },
      {
        "astId": 6158,
        "contract": "contracts/libraries/SafeToL2Migration.sol:SafeToL2Migration",
        "label": "_deprecatedDomainSeparator",
        "offset": 0,
        "slot": "6",
        "type": "t_bytes32"
      },
      {
        "astId": 6162,
        "contract": "contracts/libraries/SafeToL2Migration.sol:SafeToL2Migration",
        "label": "signedMessages",
        "offset": 0,
        "slot": "7",
        "type": "t_mapping(t_bytes32,t_uint256)"
      },
      {
        "astId": 6168,
        "contract": "contracts/libraries/SafeToL2Migration.sol:SafeToL2Migration",
        "label": "approvedHashes",
        "offset": 0,
        "slot": "8",
        "type": "t_mapping(t_address,t_mapping(t_bytes32,t_uint256))"
      }
    ],
    "types": {
      "t_address": {
        "encoding": "inplace",
        "label": "address",
        "numberOfBytes": "20"
      },
      "t_bytes32": {
        "encoding": "inplace",
        "label": "bytes32",
        "numberOfBytes": "32"
      },
      "t_mapping(t_address,t_address)": {
        "encoding": "mapping",
        "key": "t_address",
        "label": "mapping(address => address)",
        "numberOfBytes": "32",
        "value": "t_address"
      },
      "t_mapping(t_address,t_mapping(t_bytes32,t_uint256))": {
        "encoding": "mapping",
        "key": "t_address",
        "label": "mapping(address => mapping(bytes32 => uint256))",
        "numberOfBytes": "32",
        "value": "t_mapping(t_bytes32,t_uint256)"
      },
      "t_mapping(t_bytes32,t_uint256)": {
        "encoding": "mapping",
        "key": "t_bytes32",
        "label": "mapping(bytes32 => uint256)",
        "numberOfBytes": "32",
        "value": "t_uint256"
      },
      "t_uint256": {
        "encoding": "inplace",
        "label": "uint256",
        "numberOfBytes": "32"
      }
    }
  }
}