{
  "address": "0x466D3706dE61B09c91182a789e71d63E3bd19231",
  "abi": [
    {
      "inputs": [
        {
          "internalType": "address",
          "name": "safeSingleton",
          "type": "address"
        },
        {
          "internalType": "address",
          "name": "safeL2Singleton",
          "type": "address"
        },
        {
          "internalType": "address",
          "name": "fallbackHandler",
          "type": "address"
        }
      ],
      "stateMutability": "nonpayable",
      "type": "constructor"
    },
    {
      "anonymous": false,
      "inputs": [
        {
          "indexed": false,
          "internalType": "address",
          "name": "singleton",
          "type": "address"
        }
      ],
      "name": "ChangedMasterCopy",
      "type": "event"
    },
    {
      "inputs": [],
      "name": "MIGRATION_SINGLETON",
      "outputs": [
        {
          "internalType": "address",
          "name": "",
          "type": "address"
        }
      ],
      "stateMutability": "view",
      "type": "function"
    },
    {
      "inputs": [],
      "name": "SAFE_FALLBACK_HANDLER",
      "outputs": [
        {
          "internalType": "address",
          "name": "",
          "type": "address"
        }
      ],
      "stateMutability": "view",
      "type": "function"
    },
    {
      "inputs": [],
      "name": "SAFE_L2_SINGLETON",
      "outputs": [
        {
          "internalType": "address",
          "name": "",
          "type": "address"
        }
      ],
      "stateMutability": "view",
      "type": "function"
    },
    {
      "inputs": [],
      "name": "SAFE_SINGLETON",
      "outputs": [
        {
          "internalType": "address",
          "name": "",
          "type": "address"
        }
      ],
      "stateMutability": "view",
      "type": "function"
    },
    {
      "inputs": [],
      "name": "migrateL2Singleton",
      "outputs": [],
      "stateMutability": "nonpayable",
      "type": "function"
    },
    {
      "inputs": [],
      "name": "migrateL2WithFallbackHandler",
      "outputs": [],
      "stateMutability": "nonpayable",
      "type": "function"
    },
    {
      "inputs": [],
      "name": "migrateSingleton",
      "outputs": [],
      "stateMutability": "nonpayable",
      "type": "function"
    },
    {
      "inputs": [],
      "name": "migrateWithFallbackHandler",
      "outputs": [],
      "stateMutability": "nonpayable",
      "type": "function"
    }
  ],
  "transactionHash": "0x30acd67f3de3388e20e57735363369034c49b3a21a5acda38e13ecefc462f83d",
  "args": [
    "0x3913aC926c0E3BADA76FA976663d25238836954c",
    "0x7d72f5419e67b91183609e23A496E883a63D080E",
    "0xb7875Cde5e1e63c299689fB491116a6a03fA62cB"
  ],
  "numDeployments": 1,
  "solcInputHash": "d6372cac540e87137b93d1ade6e31ca3",
  "bytecode": "0x6101006040523461006b5761001b61001561011f565b91610261565b6040516105586102cf823960805181818161015601526102c0015260a0518181816101c801526104f0015260c05181818161018f0152610352015260e05181818160ef0152610404015261055890f35b600080fd5b634e487b7160e01b600052604160045260246000fd5b90601f01601f191681019081106001600160401b038211176100a757604052565b610070565b906100c06100b960405190565b9283610086565b565b6001600160a01b031690565b90565b6001600160a01b0381160361006b57565b905051906100c0826100d1565b909160608284031261006b576100ce61010884846100e2565b93604061011882602087016100e2565b94016100e2565b61013d61082780380380610132816100ac565b9283398101906100ef565b909192565b6100ce906100c2906001600160a01b031682565b6100ce90610142565b6100ce90610156565b1561016f57565b60405162461bcd60e51b815260206004820152601e60248201527f536166652053696e676c65746f6e206973206e6f74206465706c6f7965640000604482015280606481015b0390fd5b156101c057565b60405162461bcd60e51b815260206004820152602360248201527f536166652053696e676c65746f6e20284c3229206973206e6f74206465706c6f6044820152621e595960ea1b6064820152608490fd5b1561021857565b60405162461bcd60e51b8152806101b5600482016020808252818101527f66616c6c6261636b2068616e646c6572206973206e6f74206465706c6f796564604082015260600190565b61026a3061015f565b60805261027e610279826102b8565b610168565b61028f61028a836102b8565b6101b9565b6102a061029b846102b8565b610211565b60a05260c05260e052565b6100ce6100ce6100ce9290565b3b6102ca6102c660006102ab565b9190565b119056fe6080604052600436101561001257600080fd5b60003560e01c806307f464a4146100925780630d7101f71461008d57806368cb3d941461008857806372f7a956146100835780639bf47d6e1461007e578063caa12add14610079578063ed007fc6146100745763f6682ab0036100a257610204565b6101ec565b6101b3565b61017a565b610141565b610129565b6100da565b6100a7565b60009103126100a257565b600080fd5b346100a2576100b7366004610097565b6100bf610381565b60405180805b0390f35b6001600160a01b031690565b90565b565b346100a2576100ea366004610097565b6100c57f00000000000000000000000000000000000000000000000000000000000000005b604051918291826001600160a01b03909116815260200190565b346100a257610139366004610097565b6100bf610494565b346100a257610151366004610097565b6100c57f000000000000000000000000000000000000000000000000000000000000000061010f565b346100a25761018a366004610097565b6100c57f000000000000000000000000000000000000000000000000000000000000000061010f565b346100a2576101c3366004610097565b6100c57f000000000000000000000000000000000000000000000000000000000000000061010f565b346100a2576101fc366004610097565b6100bf6104b3565b346100a257610214366004610097565b6100bf61051a565b6100d5906100c9906001600160a01b031682565b6100d59061021c565b6100d590610230565b1561024957565b60405162461bcd60e51b815260206004820152603060248201527f4d6967726174696f6e2073686f756c64206f6e6c792062652063616c6c65642060448201526f1d9a584819195b1959d85d1958d85b1b60821b6064820152608490fd5b6102f46102b330610239565b6102ed6001600160a01b037f000000000000000000000000000000000000000000000000000000000000000016916001600160a01b031690565b1415610242565b6100d861032c565b9061030c6100d561032892610239565b82546001600160a01b0319166001600160a01b03919091161790565b9055565b7f75e41bc35ff1bf14d81d1d2f649c0084a0f974f9289c803ec9898eeec4c8d0b861037c7f000000000000000000000000000000000000000000000000000000000000000061010f8160006102fc565b0390a1565b6100d86102a7565b6103956102b330610239565b6100d86103e6565b634e487b7160e01b600052604160045260246000fd5b90601f01601f1916810190811067ffffffffffffffff8211176103d557604052565b61039d565b6040513d6000823e3d90fd5b6103ee610381565b6104026103fd6103fd30610239565b610239565b7f000000000000000000000000000000000000000000000000000000000000000090803b156100a25761046660009291839261043d60405190565b948593849283919063f08a032360e01b8352600483016001600160a01b03909116815260200190565b03925af1801561048f576104775750565b6100d890600061048781836103b3565b810190610097565b6103da565b6100d8610389565b6104a86102b330610239565b6100d86103ee61051a565b6100d861049c565b6104c76102b330610239565b6100d87f75e41bc35ff1bf14d81d1d2f649c0084a0f974f9289c803ec9898eeec4c8d0b861037c7f000000000000000000000000000000000000000000000000000000000000000061010f8160006102fc565b6100d86104bb56fea2646970667358221220ea39997ab0753eb19959a61a588852863745cdbb6832b7bae7d52626710c60ce64736f6c634300081b0033",
  "devdoc": {
    "author": "@safe-global/safe-protocol",
    "details": "IMPORTANT: The library is intended to be used with the Safe standard proxy that stores the singleton address      at the storage slot 0. Use at your own risk with custom proxy implementations. The contract will allow invocations      to the migration functions only via delegatecall.",
    "events": {
      "ChangedMasterCopy(address)": {
        "params": {
          "singleton": "New master copy address"
        }
      }
    },
    "kind": "dev",
    "methods": {
      "constructor": {
        "params": {
          "fallbackHandler": "Address of the fallback handler implementation",
          "safeL2Singleton": "Address of the SafeL2 Singleton implementation",
          "safeSingleton": "Address of the Safe Singleton implementation"
        }
      }
    },
    "title": "Migration Contract for Safe Upgrade",
    "version": 1
  },
  "userdoc": {
    "events": {
      "ChangedMasterCopy(address)": {
        "notice": "Event indicating a change of a singleton address. Named master copy here for legacy reasons."
      }
    },
    "kind": "user",
    "methods": {
      "MIGRATION_SINGLETON()": {
        "notice": "Address of this contract"
      },
      "SAFE_FALLBACK_HANDLER()": {
        "notice": "Address of the Fallback Handler"
      },
      "SAFE_L2_SINGLETON()": {
        "notice": "Address of the Safe Singleton (L2) implementation"
      },
      "SAFE_SINGLETON()": {
        "notice": "Address of the Safe Singleton implementation"
      },
      "constructor": {
        "notice": "Constructor"
      },
      "migrateL2Singleton()": {
        "notice": "Migrate the Safe contract to a new Safe Singleton (L2) implementation."
      },
      "migrateL2WithFallbackHandler()": {
        "notice": "Migrate to Safe Singleton (L2) and set the fallback handler. This function is intended to be used when migrating         a Safe to a version which also requires updating fallback handler."
      },
      "migrateSingleton()": {
        "notice": "Migrate the Safe contract to a new Safe Singleton implementation."
      },
      "migrateWithFallbackHandler()": {
        "notice": "Migrate to Safe Singleton and set the fallback handler. This function is intended to be used when migrating         a Safe to a version which also requires updating fallback handler."
      }
    },
    "notice": "This is a generic contract that facilitates Safe and SafeL2 proxy contracts to migrate their singleton address.         The supported target Safe version is immutable and set in the constructor during the deployment of the contract.         This contract also supports migration with fallback handler update.",
    "version": 1
  },
  "storageLayout": {
    "storage": [
      {
        "astId": 6142,
        "contract": "contracts/libraries/SafeMigration.sol:SafeMigration",
        "label": "singleton",
        "offset": 0,
        "slot": "0",
        "type": "t_address"
      },
      {
        "astId": 6146,
        "contract": "contracts/libraries/SafeMigration.sol:SafeMigration",
        "label": "modules",
        "offset": 0,
        "slot": "1",
        "type": "t_mapping(t_address,t_address)"
      },
      {
        "astId": 6150,
        "contract": "contracts/libraries/SafeMigration.sol:SafeMigration",
        "label": "owners",
        "offset": 0,
        "slot": "2",
        "type": "t_mapping(t_address,t_address)"
      },
      {
        "astId": 6152,
        "contract": "contracts/libraries/SafeMigration.sol:SafeMigration",
        "label": "ownerCount",
        "offset": 0,
        "slot": "3",
        "type": "t_uint256"
      },
      {
        "astId": 6154,
        "contract": "contracts/libraries/SafeMigration.sol:SafeMigration",
        "label": "threshold",
        "offset": 0,
        "slot": "4",
        "type": "t_uint256"
      },
      {
        "astId": 6156,
        "contract": "contracts/libraries/SafeMigration.sol:SafeMigration",
        "label": "nonce",
        "offset": 0,
        "slot": "5",
        "type": "t_uint256"
      },
      {
        "astId": 6158,
        "contract": "contracts/libraries/SafeMigration.sol:SafeMigration",
        "label": "_deprecatedDomainSeparator",
        "offset": 0,
        "slot": "6",
        "type": "t_bytes32"
      },
      {
        "astId": 6162,
        "contract": "contracts/libraries/SafeMigration.sol:SafeMigration",
        "label": "signedMessages",
        "offset": 0,
        "slot": "7",
        "type": "t_mapping(t_bytes32,t_uint256)"
      },
      {
        "astId": 6168,
        "contract": "contracts/libraries/SafeMigration.sol:SafeMigration",
        "label": "approvedHashes",
        "offset": 0,
        "slot": "8",
        "type": "t_mapping(t_address,t_mapping(t_bytes32,t_uint256))"
      }
    ],
    "types": {
      "t_address": {
        "encoding": "inplace",
        "label": "address",
        "numberOfBytes": "20"
      },
      "t_bytes32": {
        "encoding": "inplace",
        "label": "bytes32",
        "numberOfBytes": "32"
      },
      "t_mapping(t_address,t_address)": {
        "encoding": "mapping",
        "key": "t_address",
        "label": "mapping(address => address)",
        "numberOfBytes": "32",
        "value": "t_address"
      },
      "t_mapping(t_address,t_mapping(t_bytes32,t_uint256))": {
        "encoding": "mapping",
        "key": "t_address",
        "label": "mapping(address => mapping(bytes32 => uint256))",
        "numberOfBytes": "32",
        "value": "t_mapping(t_bytes32,t_uint256)"
      },
      "t_mapping(t_bytes32,t_uint256)": {
        "encoding": "mapping",
        "key": "t_bytes32",
        "label": "mapping(bytes32 => uint256)",
        "numberOfBytes": "32",
        "value": "t_uint256"
      },
      "t_uint256": {
        "encoding": "inplace",
        "label": "uint256",
        "numberOfBytes": "32"
      }
    }
  }
}