{
  "address": "0x44200D6e8Af1da58656F0E4866e44599596d2481",
  "abi": [
    {
      "anonymous": false,
      "inputs": [
        {
          "indexed": true,
          "internalType": "bytes32",
          "name": "msgHash",
          "type": "bytes32"
        }
      ],
      "name": "SignMsg",
      "type": "event"
    },
    {
      "inputs": [
        {
          "internalType": "bytes",
          "name": "message",
          "type": "bytes"
        }
      ],
      "name": "getMessageHash",
      "outputs": [
        {
          "internalType": "bytes32",
          "name": "",
          "type": "bytes32"
        }
      ],
      "stateMutability": "view",
      "type": "function"
    },
    {
      "inputs": [
        {
          "internalType": "bytes",
          "name": "_data",
          "type": "bytes"
        }
      ],
      "name": "signMessage",
      "outputs": [],
      "stateMutability": "nonpayable",
      "type": "function"
    }
  ],
  "transactionHash": "0x9d9f6f803c2e149f8ec179135c714d844a1619bfddf599eadcd5aae5b98d9c6b",
  "args": [],
  "numDeployments": 1,
  "solcInputHash": "d6372cac540e87137b93d1ade6e31ca3",
  "bytecode": "0x60806040523460195760405161049b61001f823961049b90f35b600080fdfe6080604052600436101561001257600080fd5b60003560e01c80630a1028c414610032576385a5affe036100e6576101b8565b61012f565b634e487b7160e01b600052604160045260246000fd5b90601f01601f1916810190811067ffffffffffffffff82111761006f57604052565b610037565b9061008861008160405190565b928361004d565b565b67ffffffffffffffff811161006f57602090601f01601f19160190565b0190565b90826000939282370152565b909291926100cc6100c78261008a565b610074565b93818552818301116100e6576100889160208501906100ab565b600080fd5b9080601f830112156100e657816020610106933591016100b7565b90565b906020828203126100e657813567ffffffffffffffff81116100e65761010692016100eb565b346100e65761015a61014a610145366004610109565b6102a4565b6040519182918290815260200190565b0390f35b909182601f830112156100e65781359167ffffffffffffffff83116100e65760200192600183028401116100e657565b906020828203126100e657813567ffffffffffffffff81116100e6576101b4920161015e565b9091565b346100e6576101d16101cb36600461018e565b90610405565b604051005b6101066101066101069290565b6101067f60b3cbf8b4a223d68d641b3b6ddf9a298e7f33710cf3d3a9d1146b5a6150fbca6101d6565b9081526040810192916100889160200152565b61023261022c6101069290565b60f81b90565b6001600160f81b03191690565b61010690610253906001600160a01b031682565b6001600160a01b031690565b6101069061023f565b6101069061025f565b906020828203126100e657505190565b6040513d6000823e3d90fd5b0180926001600160f81b0319169052565b01918252565b6102f46102e8916102b3600090565b506102bc6101e3565b906102cf6102c8825190565b9160200190565b20906102da60405190565b93849260208401928361020c565b9081038252038261004d565b6102ff6102c8825190565b2061030a601961021f565b610314600161021f565b61032b61032661032661032630610268565b610268565b91602061033760405190565b63f698da2560e01b815293849060049082905afa9283156103e1576000936103aa575b506102e861039b939461036c60405190565b9586946020860194859261029e60016100a79461029e828861028d60209b9a8c996001600160f81b0319169052565b6103a66102c8825190565b2090565b61039b93506103d36102e89160203d6020116103da575b6103cb818361004d565b810190610271565b935061035a565b503d6103c1565b610281565b6101069136916100b7565b90610106610106610401926101d6565b9055565b61014561043592610415926103e6565b61010661042260016101d6565b60008381526007602052604090206103f1565b7fe7f4675038f4f6034dfcbbb24c4dc08e4ebf10eb9d257d3d02c0f38d122ac6e461045f60405190565b600090a256fea2646970667358221220fa499f4f680d3788309e261c3194689c91b2b6d8e820dcc5e21fe8e74b3c910664736f6c634300081b0033",
  "devdoc": {
    "author": "Richard Meissner - @rmeissner",
    "kind": "dev",
    "methods": {
      "getMessageHash(bytes)": {
        "details": "Returns hash of a message that can be signed by owners.",
        "params": {
          "message": "Message that should be hashed."
        },
        "returns": {
          "_0": "Message hash."
        }
      },
      "signMessage(bytes)": {
        "details": "Can be verified using EIP-1271 validation method by passing the pre-image of the message hash and empty bytes as the signature.",
        "params": {
          "_data": "Arbitrary length data that should be marked as signed on the behalf of address(this)."
        }
      }
    },
    "title": "SignMessageLib - Allows to sign messages on-chain by writing the signed message hashes on-chain.",
    "version": 1
  },
  "userdoc": {
    "kind": "user",
    "methods": {
      "signMessage(bytes)": {
        "notice": "Marks a message (`_data`) as signed."
      }
    },
    "version": 1
  },
  "storageLayout": {
    "storage": [
      {
        "astId": 6142,
        "contract": "contracts/libraries/SignMessageLib.sol:SignMessageLib",
        "label": "singleton",
        "offset": 0,
        "slot": "0",
        "type": "t_address"
      },
      {
        "astId": 6146,
        "contract": "contracts/libraries/SignMessageLib.sol:SignMessageLib",
        "label": "modules",
        "offset": 0,
        "slot": "1",
        "type": "t_mapping(t_address,t_address)"
      },
      {
        "astId": 6150,
        "contract": "contracts/libraries/SignMessageLib.sol:SignMessageLib",
        "label": "owners",
        "offset": 0,
        "slot": "2",
        "type": "t_mapping(t_address,t_address)"
      },
      {
        "astId": 6152,
        "contract": "contracts/libraries/SignMessageLib.sol:SignMessageLib",
        "label": "ownerCount",
        "offset": 0,
        "slot": "3",
        "type": "t_uint256"
      },
      {
        "astId": 6154,
        "contract": "contracts/libraries/SignMessageLib.sol:SignMessageLib",
        "label": "threshold",
        "offset": 0,
        "slot": "4",
        "type": "t_uint256"
      },
      {
        "astId": 6156,
        "contract": "contracts/libraries/SignMessageLib.sol:SignMessageLib",
        "label": "nonce",
        "offset": 0,
        "slot": "5",
        "type": "t_uint256"
      },
      {
        "astId": 6158,
        "contract": "contracts/libraries/SignMessageLib.sol:SignMessageLib",
        "label": "_deprecatedDomainSeparator",
        "offset": 0,
        "slot": "6",
        "type": "t_bytes32"
      },
      {
        "astId": 6162,
        "contract": "contracts/libraries/SignMessageLib.sol:SignMessageLib",
        "label": "signedMessages",
        "offset": 0,
        "slot": "7",
        "type": "t_mapping(t_bytes32,t_uint256)"
      },
      {
        "astId": 6168,
        "contract": "contracts/libraries/SignMessageLib.sol:SignMessageLib",
        "label": "approvedHashes",
        "offset": 0,
        "slot": "8",
        "type": "t_mapping(t_address,t_mapping(t_bytes32,t_uint256))"
      }
    ],
    "types": {
      "t_address": {
        "encoding": "inplace",
        "label": "address",
        "numberOfBytes": "20"
      },
      "t_bytes32": {
        "encoding": "inplace",
        "label": "bytes32",
        "numberOfBytes": "32"
      },
      "t_mapping(t_address,t_address)": {
        "encoding": "mapping",
        "key": "t_address",
        "label": "mapping(address => address)",
        "numberOfBytes": "32",
        "value": "t_address"
      },
      "t_mapping(t_address,t_mapping(t_bytes32,t_uint256))": {
        "encoding": "mapping",
        "key": "t_address",
        "label": "mapping(address => mapping(bytes32 => uint256))",
        "numberOfBytes": "32",
        "value": "t_mapping(t_bytes32,t_uint256)"
      },
      "t_mapping(t_bytes32,t_uint256)": {
        "encoding": "mapping",
        "key": "t_bytes32",
        "label": "mapping(bytes32 => uint256)",
        "numberOfBytes": "32",
        "value": "t_uint256"
      },
      "t_uint256": {
        "encoding": "inplace",
        "label": "uint256",
        "numberOfBytes": "32"
      }
    }
  }
}