{
  "address": "0xB9496a0f1e36b16Fa1AF52A22319907E27E39C74",
  "abi": [
    {
      "inputs": [],
      "stateMutability": "nonpayable",
      "type": "constructor"
    },
    {
      "inputs": [
        {
          "internalType": "address",
          "name": "to",
          "type": "address"
        },
        {
          "internalType": "uint256",
          "name": "value",
          "type": "uint256"
        },
        {
          "internalType": "bytes",
          "name": "data",
          "type": "bytes"
        },
        {
          "internalType": "enum Enum.Operation",
          "name": "operation",
          "type": "uint8"
        }
      ],
      "name": "simulate",
      "outputs": [
        {
          "internalType": "uint256",
          "name": "estimate",
          "type": "uint256"
        },
        {
          "internalType": "bool",
          "name": "success",
          "type": "bool"
        },
        {
          "internalType": "bytes",
          "name": "returnData",
          "type": "bytes"
        }
      ],
      "stateMutability": "nonpayable",
      "type": "function"
    }
  ],
  "transactionHash": "0xba650cb06d0a0f4a3c8405f37568e4446f5073fca915837ae74f8f3a60f43d08",
  "args": [],
  "numDeployments": 1,
  "solcInputHash": "d6372cac540e87137b93d1ade6e31ca3",
  "bytecode": "0x60a060405234602857600e605c565b60405161049a610069823960805181610282015261049a90f35b600080fd5b603f906042906001600160a01b031682565b90565b6001600160a01b031690565b603f90602d565b603f90604e565b6063306055565b60805256fe6080604052600436101561001257600080fd5b60003560e01c631c5fb2110361004857610194565b6001600160a01b031690565b90565b6001600160a01b0381165b0361004857565b600080fd5b9050359061005a82610036565b565b80610041565b9050359061005a8261005c565b909182601f830112156100485781359167ffffffffffffffff831161004857602001926001830284011161004857565b6002111561004857565b9050359061005a8261009f565b919091608081840312610048576100cd838261004d565b926100db8160208401610062565b92604083013567ffffffffffffffff8111610048578261010260609461003393870161006f565b949095016100a9565b60005b83811061011e5750506000910152565b818101518382015260200161010e565b61014f61015860209361016293610143815190565b80835293849260200190565b9586910161010b565b601f01601f191690565b0190565b61018761003394929361017e60608401956000850152565b15156020830152565b604081840391015261012e565b34610048576101c26101b36101aa3660046100b6565b939290926103e2565b60405191939193849384610166565b0390f35b61003390610027906001600160a01b031682565b610033906101c6565b610033906101da565b156101f357565b60405162461bcd60e51b815260206004820152603960248201527f53696d756c61746554784163636573736f722073686f756c64206f6e6c79206260448201527f652063616c6c6564207669612064656c656761746563616c6c000000000000006064820152608490fd5b906102bb979695949392916102b6610275306101e3565b6102af6001600160a01b037f000000000000000000000000000000000000000000000000000000000000000016916001600160a01b031690565b14156101ec565b61039c565b909192565b634e487b7160e01b600052604160045260246000fd5b90601f01601f1916810190811067ffffffffffffffff8211176102f857604052565b6102c0565b9061005a61030a60405190565b92836102d6565b67ffffffffffffffff81116102f857602090601f01601f19160190565b90826000939282370152565b9092919261034f61034a82610311565b6102fd565b93818552818301116100485761005a91602085019061032e565b61003391369161033a565b634e487b7160e01b600052601160045260246000fd5b9190820391821161039757565b610374565b916103bf9594916103c7979894935050506103b95a975a95610369565b91610423565b915a9061038a565b9160405160203d0181016040523d81523d6000602083013e90565b6102bb9493929190606060008061025e565b634e487b7160e01b600052602160045260246000fd5b6002111561041457565b6103f4565b9061005a8261040a565b600094918594610431600090565b5061044561043f6001610419565b91610419565b148514610458575060208351930191f490565b9060208451940192f19056fea26469706673582212206884ea0aaab6d2559a19636fcd92ac0cda5334738e232ebcca01c48992eddaa764736f6c634300081b0033",
  "devdoc": {
    "author": "Richard Meissner - @rmeissner",
    "kind": "dev",
    "methods": {
      "simulate(address,uint256,bytes,uint8)": {
        "details": "Executes the specified operation {Call, DelegateCall} and returns operation-specific data.      Has to be called via delegatecall.      This returns the data equal to `abi.encode(uint256(estimate), bool(success), bytes(returnData))`.      Specifically, the returndata will be:      `estimate:uint256 || success:bool || returnData.length:uint256 || returnData:bytes`.",
        "params": {
          "data": "Data payload.",
          "operation": "Operation type {Call, DelegateCall}.",
          "to": "Destination address .",
          "value": "Native token value."
        },
        "returns": {
          "estimate": "Gas used.",
          "returnData": "Return data.",
          "success": "Success boolean value."
        }
      }
    },
    "title": "Simulate Transaction Accessor.",
    "version": 1
  },
  "userdoc": {
    "kind": "user",
    "methods": {
      "simulate(address,uint256,bytes,uint8)": {
        "notice": "Simulates a Safe transaction and returns the used gas, success boolean and the return data."
      }
    },
    "notice": "Can be used with StorageAccessible to simulate Safe transactions.",
    "version": 1
  },
  "storageLayout": {
    "storage": [],
    "types": null
  }
}