{
  "address": "0x75449E32614D8e77B0f922F4E0A8732524B4d2d1",
  "abi": [
    {
      "inputs": [
        {
          "internalType": "address",
          "name": "",
          "type": "address"
        },
        {
          "internalType": "address",
          "name": "",
          "type": "address"
        },
        {
          "internalType": "uint256[]",
          "name": "",
          "type": "uint256[]"
        },
        {
          "internalType": "uint256[]",
          "name": "",
          "type": "uint256[]"
        },
        {
          "internalType": "bytes",
          "name": "",
          "type": "bytes"
        }
      ],
      "name": "onERC1155BatchReceived",
      "outputs": [
        {
          "internalType": "bytes4",
          "name": "",
          "type": "bytes4"
        }
      ],
      "stateMutability": "pure",
      "type": "function"
    },
    {
      "inputs": [
        {
          "internalType": "address",
          "name": "",
          "type": "address"
        },
        {
          "internalType": "address",
          "name": "",
          "type": "address"
        },
        {
          "internalType": "uint256",
          "name": "",
          "type": "uint256"
        },
        {
          "internalType": "uint256",
          "name": "",
          "type": "uint256"
        },
        {
          "internalType": "bytes",
          "name": "",
          "type": "bytes"
        }
      ],
      "name": "onERC1155Received",
      "outputs": [
        {
          "internalType": "bytes4",
          "name": "",
          "type": "bytes4"
        }
      ],
      "stateMutability": "pure",
      "type": "function"
    },
    {
      "inputs": [
        {
          "internalType": "address",
          "name": "",
          "type": "address"
        },
        {
          "internalType": "address",
          "name": "",
          "type": "address"
        },
        {
          "internalType": "uint256",
          "name": "",
          "type": "uint256"
        },
        {
          "internalType": "bytes",
          "name": "",
          "type": "bytes"
        }
      ],
      "name": "onERC721Received",
      "outputs": [
        {
          "internalType": "bytes4",
          "name": "",
          "type": "bytes4"
        }
      ],
      "stateMutability": "pure",
      "type": "function"
    },
    {
      "inputs": [
        {
          "internalType": "bytes4",
          "name": "interfaceId",
          "type": "bytes4"
        }
      ],
      "name": "supportsInterface",
      "outputs": [
        {
          "internalType": "bool",
          "name": "",
          "type": "bool"
        }
      ],
      "stateMutability": "view",
      "type": "function"
    },
    {
      "inputs": [
        {
          "internalType": "address",
          "name": "",
          "type": "address"
        },
        {
          "internalType": "address",
          "name": "",
          "type": "address"
        },
        {
          "internalType": "address",
          "name": "",
          "type": "address"
        },
        {
          "internalType": "uint256",
          "name": "",
          "type": "uint256"
        },
        {
          "internalType": "bytes",
          "name": "",
          "type": "bytes"
        },
        {
          "internalType": "bytes",
          "name": "",
          "type": "bytes"
        }
      ],
      "name": "tokensReceived",
      "outputs": [],
      "stateMutability": "pure",
      "type": "function"
    }
  ],
  "transactionHash": "0x6114596114ed2e2eace67b2637da290abc3b9228f021277e7e83a8eea1988b3c",
  "args": [],
  "numDeployments": 1,
  "solcInputHash": "d6372cac540e87137b93d1ade6e31ca3",
  "bytecode": "0x6080604052346019576040516104c961001f82396104c990f35b600080fdfe6080604052600436101561001257600080fd5b60003560e01c806223de291461006157806301ffc9a71461005c578063150b7a0214610057578063bc197c81146100525763f23a6e610361007b576103a3565b61031e565b61022c565b6101af565b610156565b90565b6001600160a01b0381165b0361007b57565b600080fd5b9050359061008d82610069565b565b80610074565b9050359061008d8261008f565b909182601f8301121561007b5781359167ffffffffffffffff831161007b57602001926001830284011161007b57565b60c08183031261007b576100e68282610080565b926100f48360208401610080565b926101028160408501610080565b926101108260608301610095565b92608082013567ffffffffffffffff811161007b57836101319184016100a2565b92909360a082013567ffffffffffffffff811161007b5761015292016100a2565b9091565b3461007b576101663660046100d2565b505050505050505061017760405190565b80805b0390f35b6001600160e01b03198116610074565b9050359061008d8261017e565b9060208282031261007b576100669161018e565b3461007b5761017a6101ca6101c536600461019b565b6103c5565b60405191829182901515815260200190565b9060808282031261007b576101f18183610080565b926101ff8260208501610080565b9261020d8360408301610095565b92606082013567ffffffffffffffff811161007b5761015292016100a2565b3461007b5761017a61024b6102423660046101dc565b9392909261043e565b604051918291826001600160e01b0319909116815260200190565b909182601f8301121561007b5781359167ffffffffffffffff831161007b57602001926020830284011161007b57565b9160a08383031261007b576102ab8284610080565b926102b98360208301610080565b92604082013567ffffffffffffffff811161007b57816102da918401610266565b929093606082013567ffffffffffffffff811161007b57836102fd918401610266565b929093608082013567ffffffffffffffff811161007b5761015292016100a2565b3461007b5761017a61024b610334366004610296565b96959095949194939293610459565b91909160a08184031261007b5761035a8382610080565b926103688160208401610080565b926103768260408501610095565b926103848360608301610095565b92608082013567ffffffffffffffff811161007b5761015292016100a2565b3461007b5761017a61024b6103b9366004610343565b94939093929192610477565b630271189760e51b6001600160e01b0319821614908115610403575b81156103eb575090565b6301ffc9a760e01b91506001600160e01b0319161490565b6001600160e01b03198116630a85bd0160e11b1491506103e1565b61043161042b6100669290565b60e01b90565b6001600160e01b03191690565b505050505061044b600090565b5061006663150b7a0261041e565b5050505050505050610469600090565b5061006663bc197c8161041e565b505050505050610485600090565b5061006663f23a6e6161041e56fea26469706673582212204d0939c3a1269828757fd053a70df78d201532d667f1ed3490f9159935316b0964736f6c634300081b0033",
  "devdoc": {
    "author": "Richard Meissner - @rmeissner",
    "kind": "dev",
    "methods": {
      "supportsInterface(bytes4)": {
        "params": {
          "interfaceId": "Id of the interface."
        },
        "returns": {
          "_0": "if the interface is supported."
        }
      }
    },
    "title": "Default Callback Handler - Handles supported tokens' callbacks, allowing Safes receiving these tokens.",
    "version": 1
  },
  "userdoc": {
    "kind": "user",
    "methods": {
      "onERC1155BatchReceived(address,address,uint256[],uint256[],bytes)": {
        "notice": "Handles ERC1155 Token batch callback. return Standardized onERC1155BatchReceived return value."
      },
      "onERC1155Received(address,address,uint256,uint256,bytes)": {
        "notice": "Handles ERC1155 Token callback. return Standardized onERC1155Received return value."
      },
      "onERC721Received(address,address,uint256,bytes)": {
        "notice": "Handles ERC721 Token callback.  return Standardized onERC721Received return value."
      },
      "supportsInterface(bytes4)": {
        "notice": "Implements ERC165 interface support for ERC1155TokenReceiver, ERC721TokenReceiver and IERC165."
      },
      "tokensReceived(address,address,address,uint256,bytes,bytes)": {
        "notice": "Handles ERC777 Token callback. return nothing (not standardized)"
      }
    },
    "version": 1
  },
  "storageLayout": {
    "storage": [],
    "types": null
  }
}